:04000000FAEF2AF0F9
:105478001200120096908D901200030E0001606FCA
:1054880012009590010E4AEC2AF01200016E01B04C
:1054980002D08C9001D08C801200016E01B002D035
:1054A8008D9001D08D801200010E51EC2AF00A0E69
:1054B8000001606F12006D966F86F19E84EC2AF0F1
:1054C800D08EF28C1200A6B26CEF2AF06EEF2AF0A2
:1054D80067EF2AF0010E120081A275EF2AF078EF2B
:1054E8002AF0010E79EF2AF0000E120081AA7FEF50
:1054F8002AF082EF2AF0010E83EF2AF0000E120044
:10550800030ECA12870ECA169C0ECB6E9F929D82FE
:10551800CA8412009692959694949492929A8D8247
:105528008C868B848B82898A12005A50D8B49FEF5C
:105538002AF0A2EF2AF0010EA3EF2AF0000E1200C3
:105548005C50D8B4AAEF2AF0ADEF2AF0010EAEEF06
:105558002AF0000E1200086E020E016E06C002F05C
:1055680007C003F00850E4EC2BF0120099EC2AF085
:105578000009D8A4C2EF2AF0C4EF2AF0C7EF2AF036
:10558800070E0001606F1200000E4AEC2AF0010EAF
:10559800026EF40E016E49EC2CF0010E4AEC2AF072
:1055A800030E0001606F1200A4EC2AF00009D8A4D1
:1055B800E0EF2AF0E2EF2AF0E8EF2AF0010E4AECD9
:1055C8002AF0010E0001606F120006EC31F00009AC
:1055D800D8A4F1EF2AF0F3EF2AF0F9EF2AF00B0E36
:1055E8000001606F000E51EC2AF0120000EE60F02E
:1055F800240EEE6AE806FDE15D6A5C6A5B6A5A6A37
:10560800596A586A000EF86E0001BAEF35F0000EBC
:105618000A6E000E026E920E016E3CEC2FF00A2A02
:10562800130E0A641AEF2BF01CEF2BF00DEF2BF082
:105638001200000E0A6E000E026E920E016E3CEC15
:105648002FF00A2A630E0A642CEF2BF02EEF2BF0B2
:105658001FEF2BF01200BBEC2CF0000E4AEC2AF0E6
:10566800070E026ED00E016E49EC2CF0010E4AECCA
:105678002AF0060E0001606F12000E6E0CC00FF0CB
:105688000DC010F0020E046E0F0E056E000E066EB1
:10569800000E086E010E076E0E5016EC2DF012006B
:1056A80092809282C198C19AC198C19AC150F00B58
:1056B8000D09C16EC050F80B0509C06EC050C70B6C
:1056C8001009C06EC08EC2801200016E01B002D0F7
:1056D8008D9201D08D8201B002D08C9601D08C863B
:1056E80001B002D08B9401D08B8401B002D08B9290
:1056F80001D08B82120000016151D8B486EF2BF0E3
:1057080088EF2BF094EF2BF05850D8B48EEF2BF095
:1057180091EF2BF0010E92EF2BF0000E95EF2BF08E
:10572800000E1200C284C296C298C29A000E026E7F
:10573800160E016E3CEC2FF0C282C2B2A6EF2BF01F
:10574800A8EF2BF0A1EF2BF0C450030B0C6EC35045
:105758000A6E0CC00BF01200C294C296C298C29A8C
:10576800000E026E0C0E016E3CEC2FF0C282C2B22B
:10577800C0EF2BF0C2EF2BF0BBEF2BF0C450030BA4
:105788000C6EC3500A6E0CC00BF01200026E02C001
:10579800A9FF01C0A8FFA69CA69EA684000EF2BE83
:1057A800010E036EF29E550EA76EAA0EA76EA68274
:1057B80003B002D0F29E01D0F28EA694A6921200F7
:1057C800046E000E056EFAEF2BF004500524A96E46
:1057D800A69CA69EA68000F000F005500224D96E73
:1057E800000E0320DA6EA8CFDFFF052A0150055C02
:1057F800D8A001EF2CF003EF2CF0E9EF2BF012000A
:1058080080EC2DF00009D8B40CEF2CF00EEF2CF042
:1058180025EF2CF099EC2AF00009D8A416EF2CF00B
:1058280018EF2CF025EF2CF0A4EC2AF00009D8A4EE
:1058380020EF2CF022EF2CF025EF2CF0040E0001C5
:10584800606F1200000E151A000E161A000E171AB5
:10585800800E181A11C001F012C002F013C003F034
:1058680014C004F015C005F016C006F017C007F004
:1058780018C008F0D3EC3AF001C011F002C012F0E1
:1058880003C013F004C014F01200000E046E000EE2
:10589800036E62EF2CF0000E066E000E056E054AD0
:1058A800062A065009E1E00E055CD8A05EEF2CF050
:1058B80060EF2CF053EF2CF0034A042A0150035CEC
:1058C80002500458D8A06BEF2CF06DEF2CF04FEF7E
:1058D8002CF012009598959A959C959E9594959282
:1058E800000E016E000EF8EC2DF0000E016E010E98
:1058F800F8EC2DF0010E016E000E78EC2EF0010E82
:10590800016E010E78EC2EF0000E016E000EB9EC5F
:105918002EF0000E016E010EB9EC2EF01200010EF1
:1059280069EC2BF00BEC2BF0000E69EC2BF00BEC78
:105938002BF0010E69EC2BF00BEC2BF0000E69EC50
:105948002BF00BEC2BF0010E69EC2BF00BEC2BF091
:10595800000E69EC2BF01DEC2BF0010E69EC2BF01E
:105968001DEC2BF01DEC2BF01DEC2BF01200000EA3
:1059780069EC2BF00BEC2BF0010E69EC2BF00BEC27
:105988002BF0000E69EC2BF00BEC2BF0010E69EC00
:105998002BF00BEC2BF0000E69EC2BF01DEC2BF030
:1059A800010E69EC2BF01DEC2BF0000E69EC2BF0CE
:1059B8001DEC2BF0010E69EC2BF01DEC2BF01DEC0F
:1059C8002BF01DEC2BF01200000E4AEC2AF0A4EC90
:1059D8002AF00009D8A4F3EF2CF0F5EF2CF015EF1E
:1059E8002DF0010E4AEC2AF080EC2DF00009D8B415
:1059F80000EF2DF002EF2DF015EF2DF066C06EF0E0
:105A080067C06FF066C06CF067C06DF076C07EF05E
:105A180077C07FF076C07CF077C07DF00D0E000176
:105A2800606F1200096E010E0A6E000E0B6E3BEFDE
:105A38002DF007C001F008C002F067EC2AF00A6EEA
:105A48000A50D8A42AEF2DF02CEF2DF02EEF2DF0D0
:105A580044EF2DF00B500524D96E000E0620DA6EA7
:105A6800DF50016E09500B24CAEC2BF00B2A0450AE
:105A78000B5CD8A042EF2DF044EF2DF01DEF2DF078
:105A88000A501200000E066E000E056E0350041038
:105A9800D8B451EF2DF053EF2DF07BEF2DF0010E20
:105AA800076E5BEF2DF0D89003360436072A04AE54
:105AB80060EF2DF062EF2DF057EF2DF0D8900536FE
:105AC80006360350015C04500258D8A06EEF2DF042
:105AD80070EF2DF075EF2DF00350015E0450025A5F
:105AE8000580D89004320332072E62EF2DF005C0EE
:105AF80001F006C002F01200180E0E6E000E0F6EB6
:105B08001A0E106E000E116E7FEC2FF0420E185C0C
:105B1800020E1958D8B093EF2DF095EF2DF0B9EF8C
:105B28002DF0C30E185C010E1958D8A09EEF2DF069
:105B3800A0EF2DF0B9EF2DF0420E1A5C020E1B58A3
:105B4800D8B0A9EF2DF0ABEF2DF0B9EF2DF0C30EC3
:105B58001A5C010E1B58D8A0B4EF2DF0B6EF2DF04B
:105B6800B9EF2DF0010EBAEF2DF0000E1200046E01
:105B7800DAEF2DF004B002D08C9601D08C86F7EFC6
:105B88002DF004B002D08B9401D08B84F7EF2DF068
:105B980004B002D08D9201D08D82F7EF2DF004B0C1
:105BA80002D08B9201D08B82F7EF2DF00150026E5C
:105BB800036A0350000AD8B4E4EF2DF0F7EF2DF094
:105BC8000250010AD8B4BEEF2DF0030AD8B4C5EFCD
:105BD8002DF0010AD8B4CCEF2DF0070AD8B4D3EFD2
:105BE8002DF0F7EF2DF01200046E22EF2EF0015089
:105BF800D8B401EF2EF005EF2EF0026A022A06EF64
:105C08002EF0026A023A8C500218EF0B02188C6EC2
:105C180037EF2EF00150D8B414EF2EF018EF2EF015
:105C2800026A022A19EF2EF0026A023202328C50FE
:105C380002187F0B02188C6E37EF2EF00450026E9C
:105C4800036A0350000AD8B42CEF2EF037EF2EF079
:105C58000250000AD8B4FBEF2DF0010AD8B40EEFB9
:105C68002EF037EF2EF0120080EC2DF00009D8B49A
:105C780040EF2EF042EF2EF077EF2EF01C0E0E6E56
:105C8800000E0F6E1E0E106E000E116E7FEC2FF0C0
:105C98001CC064F01DC065F01CC066F01DC067F034
:105CA800C00E1C240001686FFF0E1D20696F400E96
:105CB8001C246A6F000E1D206B6F1EC074F01FC07D
:105CC80075F01EC076F01FC077F0C00E1E24786FE6
:105CD800FF0E1F20796F400E1E247A6F000E1F20C2
:105CE8007B6F030E606F1200046EA3EF2EF001505D
:105CF800D8A481EF2EF085EF2EF0026A022A86EFF3
:105D08002EF0026A023A024602468C500218BF0B75
:105D180002188C6EB8EF2EF00150D8A496EF2EF032
:105D28009AEF2EF0026A022A9BEF2EF0026A0246D0
:105D38008C500218FD0B02188C6EB8EF2EF0045030
:105D4800026E036A0350000AD8B4ADEF2EF0B8EF24
:105D58002EF00250000AD8B47BEF2EF0010AD8B416
:105D680090EF2EF0B8EF2EF01200046EE4EF2EF054
:105D78000150D8A4C2EF2EF0C6EF2EF0026A022A14
:105D8800C7EF2EF0026A023A02468C500218DF0B67
:105D980002188C6EF9EF2EF00150D8A4D6EF2EF031
:105DA800DAEF2EF0026A022ADBEF2EF0026A0246D0
:105DB80002468C500218FB0B02188C6EF9EF2EF07D
:105DC8000450026E036A0350000AD8B4EEEF2EF0B6
:105DD800F9EF2EF00250000AD8B4BCEF2EF0010AF9
:105DE800D8B4D0EF2EF0F9EF2EF012009384000E05
:105DF8005D6E81B402EF2FF005EF2FF0010E06EF74
:105E08002FF0000E5C6E9380000E0001636F81B06E
:105E180010EF2FF013EF2FF0010E14EF2FF0000EFC
:105E2800596E9382938A938C000E626F81BC1FEF28
:105E38002FF022EF2FF0010E23EF2FF0000E586EF7
:105E480081AC29EF2FF02CEF2FF0010E2DEF2FF062
:105E5800000E616F938E81BE34EF2FF037EF2FF075
:105E6800010E38EF2FF0000E5A6E000E5B6E120016
:105E780001500210D8A443EF2FF045EF2FF047EF61
:105E88002FF07EEF2FF00204D8B04DEF2FF04FEF38
:105E98002FF05FEF2FF0000E096E54EF2FF0092A54
:105EA8000150095CD8A05BEF2FF05DEF2FF053EFA6
:105EB8002FF07EEF2FF0000E086E000E076E67EFD2
:105EC8002FF0074A082AE00E036EFF0E046E01C089
:105ED80005F002C006F003500526045006220550BE
:105EE800075C06500858D8A07CEF2FF07EEF2FF003
:105EF80065EF2FF01200000E136E000E126E000EEA
:105F0800156E000E146E000E176E000E166E000E43
:105F1800026E020E016E3CEC2FF0B0EC2BF00A5032
:105F280012260B50132296EC2BF00A5014260B5015
:105F38001522164A172A17BEABEF2FF0175009E1A2
:105F48000A0E165CD8A0ABEF2FF0ADEF2FF08BEF59
:105F58002FF012C001F013C002F0000E046E0A0EFA
:105F6800036E46EC2DF00EC0D9FF0FC0DAFF01C05A
:105F7800DEFF02C0DDFF14C001F015C002F0000E04
:105F8800046E0A0E036E46EC2DF010C0D9FF11C046
:105F9800DAFF01C0DEFF02C0DDFF12000DC011F004
:105FA8000EC012F0A50E115C060E1258D8A0DFEF35
:105FB8002FF0E1EF2FF0E5EF2FF0060E126EA40E92
:105FC800116E080E115C020E1258D8B0EEEF2FF0C9
:105FD800F0EF2FF0F4EF2FF0020E126E080E116E94
:105FE8000FC013F010C014F0A50E135C060E145861
:105FF800D8A001EF30F003EF30F007EF30F0060ED5
:10600800146EA40E136E080E135C020E1458D8B04A
:1060180010EF30F012EF30F016EF30F0020E146E81
:10602800080E136E11C005F012C006F0000E25EC24
:1060380030F013C005F014C006F0010E25EC30F066
:1060480012000C6E000E016E0C5078EC2EF0000E53
:106058000B6E000E0A6E0A500B08076E010E086ED2
:10606800000E096E072A3CEF30F0D8900836093642
:10607800072E39EF30F0055008160650091608505B
:106088000910D8A44AEF30F04DEF30F0010E4EEF72
:1060980030F0000E016E0C50B9EC2EF0010E016EBE
:1060A8000C5078EC2EF00B0E0A180B10D8A45FEFEA
:1060B80030F061EF30F066EF30F0010E016E0C50F9
:1060C800F8EC2DF0000E016E0C5078EC2EF00A4A18
:1060D8000B2A0B5009E10C0E0A5CD8A076EF30F0C1
:1060E80078EF30F02FEF30F0000E016E0C50F8EC26
:1060F8002DF0010E016E0C5078EC2EF012000334D6
:1061080004340A6E0A50D8A48CEF30F08EEF30F0C9
:1061180098EF30F0000E016E000E026E000E036E56
:10612800000E046E05EF31F001C005F002C006F064
:1061380003C007F004C008F0200EA8EF30F0D89094
:106148000832073206320532E82EA3EF30F0055048
:10615800096E038EFF0E0116FF0E0216FF0E0316C0
:10616800000E0416960E0A5E0ABEBFEF30F0BDEFB1
:1061780030F0D5EF30F00A50800A970FD8B0C7EF4B
:1061880030F0C9EF30F0CBEF30F08EEF30F0D89030
:1061980004320332023201320A3ECBEF30F0EDEF27
:1061A80030F01F0E0A64DBEF30F0DDEF30F0E5EF82
:1061B80030F08EEF30F0D8900136023603360436D0
:1061C8000A060A50D8A4EBEF30F0EDEF30F0DFEF1D
:1061D80030F00950D8B4F3EF30F0F5EF30F0FDEFC0
:1061E80030F0041E031E021E016C000E0222032260
:1061F800042201C001F002C002F003C003F004C091
:1062080004F01200000E1E6E70EC2AF00009D8B4DB
:1062180010EF31F012EF31F081EF31F0210E0E6EF8
:10622800000E0F6E1F0E106E000E116E7FEC2FF019
:10623800800E186EFF0E196E20EE76F0DECF1AF083
:10624800DDCF1BF018501A2619501B221F501A5C5C
:1062580020501B58D8B033EF31F035EF31F081EFD3
:1062680031F0800E00017625186E000E7721196E28
:1062780018501F5C19502058D8B045EF31F047EF3F
:1062880031F081EF31F06851215C69512258D8B062
:1062980050EF31F052EF31F081EF31F07251665D1D
:1062A800186E73516759196E1850215C195022588D
:1062B800D8B061EF31F063EF31F069EF31F072512E
:1062C800665D216E73516759226E2150665D1C6EA2
:1062D800225067591D6ED8907331196E7231186E3D
:1062E8001C50185C1D501958D8B07DEF31F07FEF65
:1062F80031F081EF31F0010E1E6E1E50D8B487EFD9
:1063080031F089EF31F08CEF31F0010E96EF31F07A
:106318005950D8B492EF31F095EF31F0010E96EF65
:1063280031F0000E120081B49CEF31F09FEF31F094
:10633800010EA0EF31F0000E5C18D8A4A6EF31F0E2
:10634800A8EF31F0ACEF31F0000E5D6EC1EF31F027
:106358005D2A080E5D64B3EF31F0B5EF31F0C1EF9F
:1063680031F081B4BAEF31F0BDEF31F0010EBEEF7C
:1063780031F0000E5C6E000E5D6E7AEC2AF00009BA
:10638800D8A4C9EF31F0CBEF31F0F9EF31F081B09B
:10639800D0EF31F0D3EF31F0010ED4EF31F0000E31
:1063A8005918D8A4DAEF31F0DCEF31F0E1EF31F031
:1063B800000E0001636FFBEF31F00001632B080E44
:1063C8006365E9EF31F0EBEF31F0FBEF31F081B0CD
:1063D800F0EF31F0F3EF31F0010EF4EF31F0000E91
:1063E800596E000E636FFBEF31F0010E596E81BEDE
:1063F80000EF32F003EF32F0010E04EF32F0000E3E
:106408005A18D8A40AEF32F00CEF32F010EF32F03D
:10641800000E5B6E25EF32F05B2A080E5B6417EF07
:1064280032F019EF32F025EF32F081BE1EEF32F074
:1064380021EF32F0010E22EF32F0000E5A6E000EFC
:106448005B6E81BC2AEF32F02DEF32F0010E2EEF99
:1064580032F0000E5818D8A434EF32F036EF32F08C
:106468003BEF32F0000E0001626F51EF32F0000195
:10647800622B080E626543EF32F045EF32F051EFC0
:1064880032F081BC4AEF32F04DEF32F0010E4EEFA0
:1064980032F0000E586E000E626F120099EC2AF06E
:1064A8000009D8B45AEF32F05CEF32F061EF32F005
:1064B80093EC2CF0020E0001606F7FEC2BF00009CA
:1064C800D8B469EF32F06BEF32F070EF32F0000EB3
:1064D8003CEC2AF073EF32F0010E3CEC2AF01C0E73
:1064E8000E6E000E0F6E1E0E106E000E116E7FECFB
:1064F8002FF0D89000017131196E7031186E665105
:106508001826675119221C50185C1D501958D8B00C
:1065180090EF32F092EF32F099EF32F0010E016E07
:10652800000EBBEC2DF09EEF32F0010E016E010E55
:10653800BBEC2DF0D89000017331196E7231186ED2
:1065480020EE66F0DECF1AF0DDCF1BF018501A5E91
:1065580019501B5A1A501C5C1B501D58D8B0B7EF65
:1065680032F0B9EF32F0C0EF32F0020E016E000ED9
:10657800BBEC2DF0C5EF32F0020E016E010EBBEC44
:106588002DF0D89000018131196E8031186E765146
:106598001826775119221E50185C1F501958D8B068
:1065A800D8EF32F0DAEF32F0E1EF32F0040E016E9C
:1065B800000EBBEC2DF0E6EF32F0040E016E010E7A
:1065C800BBEC2DF0D89000018331196E8231186E22
:1065D80020EE76F0DECF1AF0DDCF1BF018501A5EF1
:1065E80019501B5A1A501E5C1B501F58D8B0FFEF89
:1065F80032F001EF33F008EF33F0030E016E000EB6
:10660800BBEC2DF00DEF33F0030E016E010EBBEC69
:106618002DF01200180E0E6E000E0F6E1A0E106E70
:10662800000E116E7FEC2FF0185000016E5D1950AE
:106638006F59D8B022EF33F024EF33F028EF33F05E
:1066480018C06EF019C06FF06C51185C6D51195874
:10665800D8B031EF33F033EF33F037EF33F018C001
:106668006CF019C06DF01A507E5D1B507F59D8B080
:1066780040EF33F042EF33F046EF33F01AC07EF0CC
:106688001BC07FF07C511A5C7D511B58D8B04FEF6E
:1066980033F051EF33F055EF33F01AC07CF01BC0E4
:1066A8007DF0A4EC2AF00009D8B45DEF33F05FEF79
:1066B80033F0E4EF33F0000166516E5D706F67519F
:1066C8006F59716F715109E1DD0E705DD8A06FEFE0
:1066D80033F071EF33F075EF33F0000E716FDC0EAD
:1066E800706F6C51665D726F6D516759736F73513E
:1066F80009E1DD0E725DD8A084EF33F086EF33F048
:106708008AEF33F0000E736FDC0E726F76517E5D88
:10671800806F77517F59816F815109E1DD0E805D6E
:10672800D8A099EF33F09BEF33F09FEF33F0000ED2
:10673800816FDC0E806F7C51765D826F7D51775959
:10674800836F835109E1DD0E825DD8A0AEEF33F08F
:10675800B0EF33F0B4EF33F0000E836FDC0E826FCE
:1067680072C00CF073C00DF0000E41EC2BF070C03D
:106778000CF071C00DF0020E41EC2BF082C00CF051
:1067880083C00DF0040E41EC2BF080C00CF081C0EA
:106798000DF0060E41EC2BF0DE0E0D6EAD0E0C6EFC
:1067A800080E41EC2BF0AA0E0D6E550E0C6E0A0E5B
:1067B80041EC2BF0000E4AEC2AF00E0E0001606F3F
:1067C8001200096E0950D8B4ECEF33F0EEEF33F055
:1067D80010EF34F004BEF5EF33F0F3EF33F010EFC1
:1067E80034F001C005F002C006F003C007F004C091
:1067F80008F0051E061E071E081E052A000E0622A2
:106808000722082205C00BF006C00CF007C00DF0E7
:1068180008C00EF018EF34F001C00BF002C00CF005
:1068280003C00DF004C00EF0015002100310041054
:10683800D8A421EF34F023EF34F02DEF34F0000E1C
:10684800016E000E026E000E036E000E046EBEEFA7
:1068580034F0960E0A6E37EF34F00A2AD8900E32CA
:106868000D320C320B32000E0B14056E000E0C1498
:10687800066E000E0D14076EFE0E0E14086E0550FF
:10688800061007100810D8A44CEF34F04EEF34F07F
:1068980031EF34F05CEF34F00A2A010E0B26000EBB
:1068A8000C220D220E22D8900E320D320C320B32F1
:1068B800000E0B14056E000E0C14066E000E0D145F
:1068C800076EFF0E0E14086E05500610071008100C
:1068D800D8A471EF34F073EF34F050EF34F07BEF5D
:1068E80034F00A06D8900B360C360D360E360DBE2F
:1068F80080EF34F082EF34F08AEF34F0020E0A6051
:1069080088EF34F08AEF34F075EF34F00AB08FEF87
:1069180034F091EF34F092EF34F00D9ED8900A32B3
:106928000AC005F0066A076A086A05C008F0076A1F
:10693800066A056A05500B1206500C1207500D1214
:1069480008500E120950D8B4ACEF34F0AEEF34F062
:10695800B6EF34F004BEB5EF34F0B3EF34F0B6EF71
:1069680034F00E8E0BC001F00CC002F00DC003F025
:106978000EC004F01200010E0D6E020E0001656FCC
:10698800020E646F020E676F020E666F010E696F6A
:10699800C20E686F020E6B6F420E6A6F010E6D6F4A
:1069A800260E6C6F020E6F6FDE0E6E6F000E716F2B
:1069B800DC0E706F000E736FDC0E726F020E756F57
:1069C800020E746F020E776F020E766F010E796FEA
:1069D800C20E786F020E7B6F420E7A6F010E7D6FCA
:1069E800260E7C6F020E7F6FDE0E7E6F000E816FAB
:1069F800DC0E806F000E836FDC0E826F090E066E50
:106A0800000E076E080EAFEC2AF00B0E066E000E95
:106A1800076E0A0EAFEC2AF0AD0E091807E1DE0E7C
:106A28000A18D8A41AEF35F01CEF35F028EF35F026
:106A3800550E0B1809E1AA0E0C18D8B426EF35F03C
:106A480028EF35F02BEF35F0000EB9EF35F0720E68
:106A5800066E000E076E000EAFEC2AF0700E066E82
:106A6800000E076E020EAFEC2AF0820E066E000EC4
:106A7800076E040EAFEC2AF0800E066E000E076E4D
:106A8800060EAFEC2AF00001715107E1DD0E705DD2
:106A9800D8B051EF35F053EF35F05EEF35F0715166
:106AA80007E11B0E705DD8B05CEF35F05EEF35F096
:106AB80064EF35F0000E0D6E000E716FDC0E706F16
:106AC800735107E1DD0E725DD8B06DEF35F06FEFF1
:106AD80035F07AEF35F0735107E11B0E725DD8B0CF
:106AE80078EF35F07AEF35F080EF35F0000E0D6E67
:106AF800000E736FDC0E726F815107E1DD0E805D51
:106B0800D8B089EF35F08BEF35F096EF35F081513D
:106B180007E11B0E805DD8B094EF35F096EF35F0A5
:106B28009CEF35F0000E0D6E000E816FDC0E806F4D
:106B3800835107E1DD0E825DD8B0A5EF35F0A7EFF0
:106B480035F0B2EF35F0835107E11B0E825DD8B006
:106B5800B0EF35F0B2EF35F0B8EF35F0000E0D6E4E
:106B6800000E836FDC0E826F0D5012006F865FEC93
:106B78002AF045EC2AF03EEC2AF06EEC2CF03DECC5
:106B88002AF08EEC2AF054EC2BF0FAEC2EF0040EDE
:106B9800066E5B0E056E000E25EC30F0040E066ED8
:106BA8005B0E056E010E25EC30F0000E576E000EE0
:106BB800566E000E026E920E016E3CEC2FF0564A95
:106BC800572A57BEF1EF35F0D00E565C070E5758CE
:106BD800D8A0F1EF35F0F3EF35F0DDEF35F0BFEC8D
:106BE80034F0556E5550D8A4FCEF35F0FEEF35F073
:106BF8003AEF36F0000E4AEC2AF0000E576E000EFF
:106C0800566E97EC31F0000E026E920E016E3CEC5F
:106C18002FF0564A572A57BE1BEF36F0575009E156
:106C2800960E565CD8A01BEF36F01DEF36F005EF38
:106C380036F0010E4AEC2AF0000E576E000E566E22
:106C4800000E026E920E016E3CEC2FF0564A572A47
:106C580057BE38EF36F0575009E1960E565CD8A06B
:106C680038EF36F03AEF36F024EF36F0000E4AEC03
:106C78002AF0000E576E000E566E97EC31F0000E9B
:106C8800026E920E016E3CEC2FF0564A572A57BE00
:106C980057EF36F0575009E1960E565CD8A057EFDB
:106CA80036F059EF36F041EF36F0010E4AEC2AF093
:106CB800040E066E5B0E056E000E25EC30F0040E19
:106CC800066E5B0E056E010E25EC30F0010E00011C
:106CD800606F97EC31F0A5EF36F038EC2EF0E7EF67
:106CE80036F0C8EC2AF0E7EF36F004EC2CF0E7EFCA
:106CF80036F033EC3DF0E7EF36F02FEC2BF0E7EF12
:106D080036F0BAEC2AF0E7EF36F052EC32F0E7EF63
:106D180036F058EC2AF0E7EF36F0E9EC2AF0E7EF26
:106D280036F041EC2AF0E7EF36F0E8EC2CF0E7EF2C
:106D380036F00EEC33F0E7EF36F0D8EC2AF0E7EF58
:106D480036F000016051536E546A5450000AD8B4AA
:106D5800B0EF36F0E7EF36F05350010AD8B471EFD0
:106D680036F0030AD8B475EF36F0010AD8B479EFD3
:106D780036F0070AD8B47DEF36F0010AD8B481EFAF
:106D880036F0030AD8B485EF36F0010AD8B489EF93
:106D980036F00E0AD8B48DEF36F0030AD8B491EF66
:106DA80036F0010AD8B495EF36F0070AD8B499EF4F
:106DB80036F0010AD8B49DEF36F0030AD8B4A1EF33
:106DC80036F0E7EF36F0000E026E350E016E3CEC41
:106DD8002FF06DEF36F000EF00F01250800B1F6EB1
:106DE80012501224266E11AEFCEF36F0FEEF36F08C
:106DF800FFEF36F026802650D8B405EF37F007EFBE
:106E080037F01CEF37F02628D8A40DEF37F00FEF36
:106E180037F017EF37F0000E0F6E000E106E000EF1
:106E2800116E000E126E118E000E126E24EF37F0E6
:106E3800000E0F6E000E106E000E116E000E126E18
:106E48001650800B1F1A16501624276E15AE2FEFFA
:106E580037F031EF37F032EF37F027802750D8B4CA
:106E680038EF37F03AEF37F04FEF37F02728D8A44C
:106E780040EF37F042EF37F04AEF37F0000E136E6D
:106E8800000E146E000E156E000E166E158E000E96
:106E9800166E57EF37F0000E136E000E146E000ECC
:106EA800156E000E166E1350141015101610D8A477
:106EB80060EF37F062EF37F07AEF37F0000E0F6EC1
:106EC800000E106E000E116E000E126E800E111262
:106ED8007F0E12121F5012120FC00FF010C010F0C8
:106EE80011C011F012C012F0BDEF38F02650D8A42E
:106EF80080EF37F082EF37F08CEF37F0000E0F6E2F
:106F0800000E106E000E116E000E126EBDEF38F0FE
:106F1800275026C017F0186A175E000E185A7F0E01
:106F28001724206E000E1820216E0FC01BF010C011
:106F38001CF011C01DF012C01EF0000E0F6E000EE6
:106F4800106E000E116E000E126E000E226E000EF4
:106F5800236E000E246E000E256E000E276EEDEFD8
:106F680037F02750D8B4BBEF37F0BDEF37F0D4EF88
:106F780037F0D8901B361C361D361E36D8900F3683
:106F880010361136123625AECCEF37F0CEEF37F08B
:106F9800CFEF37F00F80D8902236233624362536A7
:106FA80013501B5C14501C5815501D5816501E5871
:106FB800D8A0E1EF37F0E3EF37F0ECEF37F0258CAE
:106FC80013501B5E14501C5A15501D5A16501E5A49
:106FD800272A190E2764F3EF37F0F5EF37F0B5EFEE
:106FE80037F01B501C101D101E10D8B4FEEF37F0E0
:106FF80000EF38F018EF38F0228018EF38F0D8900A
:107008000F3610361136123625AE0DEF38F00FEF69
:1070180038F010EF38F00F80D89022362336243617
:1070280025362006D8A0210611AE1DEF38F01FEF37
:1070380038F003EF38F0000E276E25AE26EF38F053
:1070480028EF38F04CEF38F0FF0E2214176EFF0EC1
:107058002314186EFF0E2414196E7F0E25141A6E51
:107068001750181019101A10D8B43DEF38F03FEF28
:1070780038F043EF38F0010E276E4CEF38F00FA0D0
:1070880048EF38F04AEF38F04CEF38F03FEF38F07F
:107098002750D8B452EF38F054EF38F078EF38F082
:1070A800010E0F26000E10221122122212A05FEFED
:1070B80038F061EF38F078EF38F00FC017F010C0F3
:1070C80018F011C019F012C01AF01A341A32193215
:1070D8001832173217C00FF018C010F019C011F08D
:1070E8001AC012F0204A212A21BE83EF38F021501D
:1070F80008E12028D8A083EF38F085EF38F090EF2A
:1071080038F0000E216E2068000E0F6E000E106E13
:10711800000E116E000E126E21BE9DEF38F0215048
:1071280006E12004D8B09BEF38F09DEF38F0ABEFC4
:1071380038F0000E216E000E206E000E0F6E000E4D
:10714800106E000E116E000E126E000E1F6E20C023
:1071580026F026A0B2EF38F0B4EF38F0B7EF38F0E9
:10716800118EB8EF38F0119ED8902630126E6EEF5F
:1071780037F012002B50800B346E2B502B243A6EB4
:107188002AAEC9EF38F0CBEF38F0CCEF38F03A80C0
:107198003A50D8B4D2EF38F0D4EF38F0E7EF38F0FF
:1071A8003A28D8A4DAEF38F0DCEF38F0E4EF38F01A
:1071B800000E286E000E296E000E2A6E000E2B6E31
:1071C8002A8EEFEF38F0000E286E000E296E000EA2
:1071D8002A6E000E2B6E2F50800B341A2F502F243E
:1071E800396E2EAEFAEF38F0FCEF38F0FDEF38F0DC
:1071F80039803950D8B403EF39F005EF39F018EF7A
:1072080039F03928D8A40BEF39F00DEF39F015EF24
:1072180039F0000E2C6E000E2D6E000E2E6E000E34
:107228002F6E2E8E20EF39F0000E2C6E000E2D6E74
:10723800000E2E6E000E2F6E3950D8B426EF39F09E
:1072480028EF39F030EF39F03A50D8A42EEF39F062
:1072580030EF39F03AEF39F0000E286E000E296E43
:10726800000E2A6E000E2B6ED2EF3AF02E50280236
:10727800F3CF3FF0F4CF40F03F50356E366A376AAF
:10728800386A40503B6E3C6A3D6A3E6A2D5029027E
:10729800F3CF3FF0F4CF40F03F503526000E3622B2
:1072A8003722382240503B26000E3C223D223E2207
:1072B8002C502A02F3CF3FF0F4CF40F03F50352650
:1072C800000E36223722382240503B26000E3C2240
:1072D8003D223E2237C038F036C037F035C036F090
:1072E800356A2C502902F3CF3FF0F4CF40F03F50DD
:1072F800352640503622000E3722000E38222D50F7
:107308002802F3CF3FF0F4CF40F03F5035264050ED
:107318003622000E3722000E382237C038F036C029
:1073280037F035C036F0356A2C502802F3CF3FF0DD
:10733800F4CF40F03F50352640503622000E372219
:10734800000E38222E502902F3CF3FF0F4CF40F040
:107358003F503B2640503C22000E3D22000E3E226C
:107368002D502A02F3CF3FF0F4CF40F03F503B2698
:1073780040503C22000E3D22000E3E222E502A0292
:10738800F3CF3FF0F4CF40F03F50306E4050316EB5
:10739800326A336A32C033F031C032F030C031F073
:1073A800306A30503B2631503C2232503D22335017
:1073B8003E2235C030F036C031F037C032F038C028
:1073C80033F0190EEDEF39F0D890333232323132D2
:1073D8003032E82EE8EF39F030503B2631503C226D
:1073E80032503D2233503E2237C038F036C037F095
:1073F80035C036F0356A39503AC030F0316A302637
:10740800000E3122820E30243F6EFF0E3120406E76
:1074180023EF3AF0D8903B363C363D363E3638AE10
:1074280018EF3AF01AEF3AF01BEF3AF03B80D89099
:1074380035363636373638363F06D8A040063DAEA4
:1074480028EF3AF02AEF3AF00EEF3AF0000E396ED4
:1074580038AE31EF3AF033EF3AF057EF3AF0FF0E2B
:107468003514306EFF0E3614316EFF0E3714326E3F
:107478007F0E3814336E3050311032103310D8B4B8
:1074880048EF3AF04AEF3AF04EEF3AF0010E396E13
:1074980057EF3AF03BA053EF3AF055EF3AF057EF79
:1074A8003AF04AEF3AF03950D8B45DEF3AF05FEF6E
:1074B8003AF083EF3AF0010E3B26000E3C223D22C3
:1074C8003E223EA06AEF3AF06CEF3AF083EF3AF0D2
:1074D8003BC030F03CC031F03DC032F03EC033F02C
:1074E8003334333232323132303230C03BF031C093
:1074F8003CF032C03DF033C03EF03F4A402A40BE27
:107508008EEF3AF0405008E13F28D8A08EEF3AF0CD
:1075180090EF3AF09AEF3AF0000E3B6E000E3C6E98
:10752800800E3D6E7F0E3E6EC8EF3AF040BEA7EF6C
:107538003AF0405006E13F04D8B0A5EF3AF0A7EF83
:107548003AF0B3EF3AF0000E3B6E000E3C6E000EC0
:107558003D6E000E3E6E000E346EC8EF3AF03FC02E
:107568003AF0FF0E3B16FF0E3C167F0E3D16000E3E
:107578003E163AA0C2EF3AF0C4EF3AF0C5EF3AF03F
:107588003D8ED8903A303E6E34503E123BC028F0C3
:107598003CC029F03DC02AF03EC02BF01200045038
:1075A800800B0D6E045004240F6E03AEDEEF3AF02C
:1075B800E0EF3AF0E1EF3AF00F800F50D8B4E7EF80
:1075C8003AF0E9EF3AF0FEEF3AF00F28D8A4EFEFDF
:1075D8003AF0F1EF3AF0F9EF3AF0000E016E000ED2
:1075E800026E000E036E000E046E038E000E046E13
:1075F80006EF3BF0000E016E000E026E000E036EE9
:10760800000E046E0850800B0E6E0D500E18D8B484
:1076180010EF3BF012EF3BF013EF3BF00D8C0850EE
:1076280008240E6E07AE1BEF3BF01DEF3BF01EEF7C
:107638003BF00E800E50D8B424EF3BF026EF3BF021
:107648003BEF3BF00E28D8A42CEF3BF02EEF3BF09D
:1076580036EF3BF0000E056E000E066E000E076E4C
:10766800000E086E078E000E086E43EF3BF0000E0A
:10767800056E000E066E000E076E000E086E0F50A7
:107688000E5CD8B04AEF3BF04CEF3BF073EF3BF0A9
:107698000DAC51EF3BF053EF3BF055EF3BF0800E54
:1076A8000D1A0FC010F00EC00FF010C00EF001C080
:1076B80010F005C001F010C005F002C010F006C0BF
:1076C80002F010C006F003C010F007C003F010C0AD
:1076D80007F004C010F008C004F010C008F0000E55
:1076E800106E0F500EC009F00A6A095E000E0A5AA1
:1076F8000ABE88EF3BF00A5009E11A0E095CD8A0CF
:1077080088EF3BF08AEF3BF0C1EF3BF001500210ED
:1077180003100410D8A493EF3BF096EF3BF0010E52
:1077280097EF3BF0000E106E000E016E000E026E19
:10773800000E036E000E046E0EC00FF0CAEF3BF091
:1077480010A0A9EF3BF0ABEF3BF0B1EF3BF0D890C6
:1077580010300109106EB3EF3BF0D890103201A041
:10776800B8EF3BF0BAEF3BF0BBEF3BF0108E0434C0
:1077780004320332023201320F2A0E500F5CD8A0B5
:10778800C8EF3BF0CAEF3BF0A4EF3BF00DBCCFEFE6
:107798003BF0D1EF3BF011EF3CF00F50D8A4D7EFFE
:1077A8003BF0D9EF3BF0E3EF3BF0000E016E000E2B
:1077B800026E000E036E000E046E32EF3DF00550AF
:1077C800012606500222075003220850042204A072
:1077D800F0EF3BF0F2EF3BF09EEF3CF010A0F7EF3C
:1077E8003BF0F9EF3BF0FFEF3BF0D8901030010988
:1077F800106E01EF3CF0D890103201A006EF3CF07B
:1078080008EF3CF009EF3CF0108E043404320332E8
:10781800023201320F2A9EEF3CF00550015C0650FF
:107828000258075003580450800A096E0850800A0D
:107838000958D8B022EF3CF024EF3CF04FEF3CF071
:107848000150055C096E025006580A6E035007582D
:107858000B6E045008580C6EFF0E0924016EFF0EC3
:107868000A20026EFF0E0B20036EFF0E0C20046E22
:10787800800E0D1A106C1050D8A445EF3CF047EF5D
:107888003CF057EF3CF0010E0126000E02220322C5
:10789800042257EF3CF00550015E0650025A07508B
:1078A800035A0850045A0150021003100410D8A4B7
:1078B80060EF3CF062EF3CF097EF3CF01050D8A43A
:1078C80068EF3CF06AEF3CF097EF3CF0000E016E79
:1078D800000E026E000E036E000E046E32EF3DF0D5
:1078E800D890013602360336043610AE7EEF3CF0EF
:1078F80080EF3CF081EF3CF0018010A086EF3CF077
:1079080088EF3CF08CEF3CF0D88010368EEF3CF0DE
:10791800D89010360F50D8B494EF3CF096EF3CF066
:1079280097EF3CF00F0603AE9CEF3CF09EEF3CF067
:1079380074EF3CF0000E0E6E10AEA5EF3CF0A7EF12
:107948003CF0BFEF3CF010C009F07F0E0916D8B428
:10795800B0EF3CF0B2EF3CF0B6EF3CF0010E0E6E2B
:10796800BFEF3CF001A0BBEF3CF0BDEF3CF0BFEF38
:107978003CF0B2EF3CF00E50D8B4C5EF3CF0C7EF86
:107988003CF0F2EF3CF0010E0126000E0222032229
:10799800042204A0D2EF3CF0D4EF3CF0F2EF3CF02C
:1079A80001C009F002C00AF003C00BF004C00CF0DB
:1079B8000C340C320B320A32093209C001F00AC009
:1079C80002F00BC003F00CC004F00F28D8B4EFEF9E
:1079D8003CF0F1EF3CF0F2EF3CF00F2A0F28D8B45E
:1079E800F8EF3CF0FAEF3CF002EF3DF00F50D8A46E
:1079F80000EF3DF002EF3DF014EF3DF0000E016E98
:107A0800000E026E000E036E000E046E0F50D8A416
:107A180010EF3DF012EF3DF014EF3DF0000E0D6E4B
:107A28000FA019EF3DF01BEF3DF01EEF3DF0038E68
:107A38001FEF3DF0039ED8900F30046E0DAE27EF78
:107A48003DF029EF3DF02AEF3DF0048E01C001F032
:107A580002C002F003C003F004C004F01200470E95
:107A68000E6E000E0F6E490E106E000E116E7FEC3A
:107A78002FF0040E446E5B0E436E040E466E5B0ED2
:107A8800456E475000016A5D48506B59D8B04FEFBA
:107A98003DF051EF3DF0E6EF3DF066517025416E47
:107AA80067517121426E4750415C48504258D8B0E6
:107AB80060EF3DF062EF3DF068EF3DF066517025F4
:107AC800476E67517121486E000E4F6E600E506E02
:107AD8008B0E516E440E526E6651475C416E675173
:107AE8004858426E41C001F042C002F0036A046A7D
:107AF800000EE5EC33F001C04BF002C04CF003C0BF
:107B08004DF004C04EF070C001F071C002F0036A7D
:107B1800046A000EE5EC33F001C013F002C014F063
:107B280003C015F004C016F04BC00FF04CC010F0A5
:107B38004DC011F04EC012F0F1EC36F00FC028F035
:107B480010C029F011C02AF012C02BF0000E2C6EC4
:107B5800800E2D6E1D0E2E6E440E2F6EBEEC38F06C
:107B680028C04BF029C04CF02AC04DF02BC04EF075
:107B78004FC001F050C002F051C003F052C004F0F1
:107B88004BC005F04CC006F04DC007F04EC008F0E1
:107B9800D3EC3AF001C04FF002C050F003C051F0EE
:107BA80004C052F04FC001F050C002F051C003F0C1
:107BB80052C004F083EC30F001C043F002C044F03E
:107BC80083EF3EF06851475C69514858D8B0EFEFF1
:107BD8003DF0F1EF3DF083EF3EF070EC2AF0000944
:107BE800D8A4F9EF3DF0FBEF3DF083EF3EF0000144
:107BF8007251665D416E73516759426E4150475CE0
:107C080042504858D8B00BEF3EF00DEF3EF013EF5E
:107C18003EF07251665D476E73516759486E000EAB
:107C28004F6E600E506E8B0E516E440E526E475062
:107C3800665D416E48506759426E41C001F042C0CE
:107C480002F0036A046A000EE5EC33F001C04BF061
:107C580002C04CF003C04DF004C04EF072C001F0F9
:107C680073C002F0036A046A000EE5EC33F001C049
:107C780013F002C014F003C015F004C016F04BC096
:107C88000FF04CC010F04DC011F04EC012F0F1ECE6
:107C980036F00FC028F010C029F011C02AF012C029
:107CA8002BF0000E2C6E800E2D6E1D0E2E6E440EC7
:107CB8002F6EBEEC38F028C04BF029C04CF02AC01B
:107CC8004DF02BC04EF04FC011F050C012F051C013
:107CD80013F052C014F04BC015F04CC016F04DC054
:107CE80017F04EC018F026EC2CF011C04FF012C05F
:107CF80050F013C051F014C052F0D6EF3DF0495087
:107D080000017A5D4A507B59D8B08DEF3EF08FEF75
:107D18003EF024EF3FF076518025416E7751812166
:107D2800426E4950415C4A504258D8B09EEF3EF0EE
:107D3800A0EF3EF0A6EF3EF076518025496E7751D0
:107D480081214A6E000E4F6E600E506E8B0E516E82
:107D5800440E526E7651495C416E77514A58426ED4
:107D680041C001F042C002F0036A046A000EE5EC6B
:107D780033F001C04BF002C04CF003C04DF004C01A
:107D88004EF080C001F081C002F0036A046A000E60
:107D9800E5EC33F001C013F002C014F003C015F095
:107DA80004C016F04BC00FF04CC010F04DC011F0DD
:107DB8004EC012F0F1EC36F00FC028F010C029F0D8
:107DC80011C02AF012C02BF0000E2C6E800E2D6E02
:107DD8001D0E2E6E440E2F6EBEEC38F028C04BF0F0
:107DE80029C04CF02AC04DF02BC04EF04FC001F016
:107DF80050C002F051C003F052C004F04BC005F06F
:107E08004CC006F04DC007F04EC008F0D3EC3AF075
:107E180001C04FF002C050F003C051F004C052F04E
:107E28004FC001F050C002F051C003F052C004F03E
:107E380083EC30F001C045F002C046F0B6EF3FF0E9
:107E48007851495C79514A58D8B02DEF3FF02FEF5F
:107E58003FF0B6EF3FF08251765D416E835177591E
:107E6800426E4150495C42504A58D8B03EEF3FF00C
:107E780040EF3FF046EF3FF08251765D496E835107
:107E880077594A6E000E4F6E600E506E8B0E516E13
:107E9800440E526E4950765D416E4A507759426E93
:107EA80041C001F042C002F0036A046A000EE5EC2A
:107EB80033F001C04BF002C04CF003C04DF004C0D9
:107EC8004EF082C001F083C002F0036A046A000E1B
:107ED800E5EC33F001C013F002C014F003C015F054
:107EE80004C016F04BC00FF04CC010F04DC011F09C
:107EF8004EC012F0F1EC36F00FC028F010C029F097
:107F080011C02AF012C02BF0000E2C6E800E2D6EC0
:107F18001D0E2E6E440E2F6EBEEC38F028C04BF0AE
:107F280029C04CF02AC04DF02BC04EF04FC011F0C4
:107F380050C012F051C013F052C014F04BC015F0ED
:107F48004CC016F04DC017F04EC018F026EC2CF0BF
:107F580011C04FF012C050F013C051F014C052F0CD
:107F680014EF3FF0A4EC2AF00009D8B4BEEF3FF0BC
:107F7800C0EF3FF0CBEF3FF00C0E0001606F040E36
:107F8800446E5B0E436E040E466E5B0E456E99ECB6
:107F98002AF00009D8B4D3EF3FF0D5EF3FF0E0EF77
:107FA8003FF0050E0001606F040E446E5B0E436ED9
:107FB800040E466E5B0E456E06EC31F00009D8B42F
:107FC800E8EF3FF0EAEF3FF0F5EF3FF0090E000170
:107FD800606F040E446E5B0E436E040E466E5B0EBD
:107FE800456E43C00DF044C00EF045C00FF046C0CA
:087FF80010F0D2EC2FF0120092
:020000040020DA
:08000000FFFFFFFFFFFFFFFF00
:020000040030CA
:0E000000000C1E1EFF8180FF0FC00FE00F409E
:00000001FF
