:04000000AAEF6AF009
:10D432001200030E0001636F12008C900F012E91F7
:10D44200879012008B900F0126918680120025ECA6
:10D452006BF0F28AF28C1200016E01B002D086905B
:10D4620001D086801200016E01B002D0879001D0F7
:10D4720087801200010E34EC6AF00A0E0001636F1D
:10D48200120081B247EF6AF049EF6AF042EF6AF0A8
:10D49200010E12008EA250EF6AF053EF6AF0010EF5
:10D4A20054EF6AF0000E12008EAA5AEF6AF05DEF96
:10D4B2006AF0010E5EEF6AF0000E12005A50D8B404
:10D4C20065EF6AF068EF6AF0010E69EF6AF0000E2C
:10D4D20012005C50D8B470EF6AF073EF6AF0010E7C
:10D4E20074EF6AF0000E1200086E020E016E06C0A2
:10D4F20002F007C003F00850D3EC6BF012008EBCB0
:10D5020085EF6AF088EF6AF0010E89EF6AF0000E8B
:10D512000001616F12005FEC6AF00009D8A494EF79
:10D522006AF096EF6AF099EF6AF0070E0001636FF6
:10D532001200000E2DEC6AF0010E026EF40E016E66
:10D5420038EC6CF0010E2DEC6AF0030E0001636FF3
:10D55200120000EE60F0250EEE6AE806FDE15D6A5B
:10D562005C6A5B6A5A6A596A000EF86E0001C3EF80
:10D5720075F06AEC6AF00009D8A4C2EF6AF0C4EF51
:10D582006AF0CAEF6AF0010E2DEC6AF0010E00019A
:10D59200636F120035EC71F00009D8A4D3EF6AF082
:10D5A200D5EF6AF0DBEF6AF00B0E0001636F000E3D
:10D5B20034EC6AF01200000E0A6E000E026E920E39
:10D5C200016E18EC6FF00A2A130E0A64EBEF6AF090
:10D5D200EDEF6AF0DEEF6AF01200000E0A6E000E46
:10D5E200026E920E016E18EC6FF00A2A630E0A6444
:10D5F200FDEF6AF0FFEF6AF0F0EF6AF01200B1ECB3
:10D602006CF0000E2DEC6AF0070E026ED00E016E69
:10D6120038EC6CF0010E2DEC6AF0060E0001636F1F
:10D6220012000E6E0CC00FF00DC010F0020E046E50
:10D632000F0E056E000E066E000E086E010E076ECE
:10D642000E503AEC6DF01200BF50F00B0109BF6EA4
:10D65200E00EBE16BD508F0B4009BD6EF00EBD161A
:10D662009C0EBC6E0E01BE93C683BD8E1200016E6F
:10D6720001B002D0879201D0878201B002D0869693
:10D6820001D0868601B002D0859401D0858401B094
:10D6920002D0859201D08582120000016051D8B477
:10D6A20055EF6BF057EF6BF063EF6BF06151D8B44D
:10D6B2005DEF6BF060EF6BF0010E61EF6BF0000E4F
:10D6C20064EF6BF0000E1200C00E0F015F17000E28
:10D6D200026E0C0E016E18EC6FF0608060B074EF99
:10D6E2006BF076EF6BF06FEF6BF06450030B0C6E28
:10D6F20063500A6E0CC00BF012000F015F51C00B99
:10D7020001095F6F000E026E160E016E18EC6FF0CB
:10D71200608060B08FEF6BF091EF6BF08AEF6BF08F
:10D722006450030B0C6E63500A6E0CC00BF01200B7
:10D73200026E3F0E811602C07EFF000E7F6E01C098
:10D7420080FF8184000EF2BE010E036EF29E550E22
:10D75200826EAA0E826E818203B002D0F29E01D046
:10D76200F28E819412000F011181118360986084FE
:10D77200609CF80E5A17FC0E581758995751C00B57
:10D782000709576F000E5E6F040E5C6FE00E5D17A7
:10D79200000E666E000E676E000E736E000E726EE5
:10D7A200608E1200046E000E056EE9EF6BF03F0E04
:10D7B2008116045005247E6E000E7F6E8180055016
:10D7C2000224D96E000E0320DA6E80CFDFFF052A15
:10D7D2000150055CD8A0F0EF6BF0F2EF6BF0D8EFE0
:10D7E2006BF01200DBEC6DF00009D8B4FBEF6BF0CC
:10D7F200FDEF6BF014EF6CF05FEC6AF00009D8A457
:10D8020005EF6CF007EF6CF014EF6CF06AEC6AF065
:10D812000009D8A40FEF6CF011EF6CF014EF6CF06C
:10D82200040E0001636F1200000E151A000E161A84
:10D83200000E171A800E181A11C001F012C002F061
:10D8420013C003F014C004F015C005F016C006F0B2
:10D8520017C007F018C008F0DBEC7AF001C011F035
:10D8620002C012F003C013F004C014F01200000E44
:10D87200046E000E036E51EF6CF0000E066E000E89
:10D88200056E054A062A065009E1E00E055CD8A09D
:10D892004DEF6CF04FEF6CF042EF6CF0034A042A4C
:10D8A2000150035C02500458D8A05AEF6CF05CEFB0
:10D8B2006CF03EEF6CF01200010E38EC6BF0DCEC19
:10D8C2006AF0000E38EC6BF0DCEC6AF0010E38EC1A
:10D8D2006BF0DCEC6AF0000E38EC6BF0DCEC6AF01A
:10D8E200010E38EC6BF0DCEC6AF0000E38EC6BF0F9
:10D8F200EEEC6AF0010E38EC6BF0EEEC6AF0EEEC56
:10D902006AF0EEEC6AF012008B980F0126998B9A5E
:10D91200269B8B9C269D8B9E269F8B9426958B9275
:10D922002693000E016E000E16EC6EF0000E016ED4
:10D93200010E16EC6EF0010E016E000E96EC6EF00A
:10D94200010E016E010E96EC6EF0000E016E000EDD
:10D95200D7EC6EF0000E016E010ED7EC6EF01200E5
:10D96200000E38EC6BF0DCEC6AF0010E38EC6BF078
:10D97200DCEC6AF0000E38EC6BF0DCEC6AF0010EC5
:10D9820038EC6BF0DCEC6AF0000E38EC6BF0EEEC8D
:10D992006AF0010E38EC6BF0EEEC6AF0000E38EC37
:10D9A2006BF0EEEC6AF0010E38EC6BF0EEEC6AF024
:10D9B200EEEC6AF0EEEC6AF012008C920F012E93FC
:10D9C2008B9626978A9421958A922193889A119B05
:10D9D2008782868685848582838A888811991089C0
:10D9E200898C199D188D000E0001626F8EBCFCEFB0
:10D9F2006CF0FFEF6CF0010E00EF6DF0000E616F46
:10DA02008EBC06EF6DF009EF6DF0010E0AEF6DF0BE
:10DA1200000E606F1200000E2DEC6AF06AEC6AF0E4
:10DA22000009D8A417EF6DF019EF6DF039EF6DF022
:10DA3200010E2DEC6AF0DBEC6DF00009D8B424EF96
:10DA42006DF026EF6DF039EF6DF067C06FF068C0D2
:10DA520070F067C06DF068C06EF077C07FF078C07C
:10DA620080F077C07DF078C07EF00D0E0001636F0C
:10DA72001200096E010E0A6E000E0B6E5FEF6DF062
:10DA820007C001F008C002F042EC6AF00A6E0A50C8
:10DA9200D8A44EEF6DF050EF6DF052EF6DF068EFDD
:10DAA2006DF00B500524D96E000E0620DA6EDF50A1
:10DAB200016E09500B2499EC6BF00B2A04500B5C9D
:10DAC200D8A066EF6DF068EF6DF041EF6DF00A508F
:10DAD200120089840F0119951885000E5D6E8EB4AF
:10DAE20075EF6DF078EF6DF0010E79EF6DF0000ECD
:10DAF2005C6E898019911881000E0001646F8EB0EE
:10DB020085EF6DF088EF6DF0010E89EF6DF0000E7C
:10DB1200596E89820F0119931883898A199B188B70
:10DB2200898E199F188F8EBE99EF6DF09CEF6DF064
:10DB3200010E9DEF6DF0000E5A6E000E5B6E12002C
:10DB4200000E066E000E056E03500410D8B4ACEF42
:10DB52006DF0AEEF6DF0D6EF6DF0010E076EB6EF21
:10DB62006DF0D89003360436072A04AEBBEF6DF091
:10DB7200BDEF6DF0B2EF6DF0D8900536063603506A
:10DB8200015C04500258D8A0C9EF6DF0CBEF6DF0E4
:10DB9200D0EF6DF00350015E0450025A0580D89018
:10DBA20004320332072EBDEF6DF005C001F006C04E
:10DBB20002F01200180E0E6E000E0F6E1A0E106E8C
:10DBC200000E116E5BEC6FF0420E185C020E1958DB
:10DBD200D8B0EEEF6DF0F0EF6DF014EF6EF0C30E13
:10DBE200185C010E1958D8A0F9EF6DF0FBEF6DF03B
:10DBF20014EF6EF0420E1A5C020E1B58D8B004EFFE
:10DC02006EF006EF6EF014EF6EF0C30E1A5C010EAA
:10DC12001B58D8A00FEF6EF011EF6EF014EF6EF0FC
:10DC2200010E15EF6EF0000E1200046E40EF6EF062
:10DC32000150D8B41FEF6EF023EF6EF0026A022A91
:10DC420024EF6EF0026A023A86500218EF0B0218B5
:10DC5200866E55EF6EF00150D8B432EF6EF036EFAB
:10DC62006EF0026A022A37EF6EF0026A0232023264
:10DC7200865002187F0B0218866E55EF6EF0045024
:10DC8200026E036A0350000AD8B44AEF6EF055EFF1
:10DC92006EF00250000AD8B419EF6EF0010AD8B43F
:10DCA2002CEF6EF055EF6EF01200DBEC6DF0000918
:10DCB200D8B45EEF6EF060EF6EF095EF6EF01C0E72
:10DCC2000E6E000E0F6E1E0E106E000E116E5BECCD
:10DCD2006FF01CC065F01DC066F01CC067F01DC06F
:10DCE20068F0C00E1C240001696FFF0E1D206A6FD0
:10DCF200400E1C246B6F000E1D206C6F1EC075F051
:10DD02001FC076F01EC077F01FC078F0C00E1E2430
:10DD1200796FFF0E1F207A6F400E1E247B6F000E5C
:10DD22001F207C6F030E636F1200046EC1EF6EF052
:10DD32000150D8A49FEF6EF0A3EF6EF0026A022AA0
:10DD4200A4EF6EF0026A023A0246024686500218B8
:10DD5200BF0B0218866ED6EF6EF00150D8A4B4EF56
:10DD62006EF0B8EF6EF0026A022AB9EF6EF0026A44
:10DD7200024686500218FD0B0218866ED6EF6EF030
:10DD82000450026E036A0350000AD8B4CBEF6EF05F
:10DD9200D6EF6EF00250000AD8B499EF6EF0010A85
:10DDA200D8B4AEEF6EF0D6EF6EF01200046E02EF52
:10DDB2006FF00150D8A4E0EF6EF0E4EF6EF0026A6B
:10DDC200022AE5EF6EF0026A023A02468650021813
:10DDD200DF0B0218866E17EF6FF00150D8A4F4EF34
:10DDE2006EF0F8EF6EF0026A022AF9EF6EF0026A44
:10DDF2000246024686500218FB0B0218866E17EF87
:10DE02006FF00450026E036A0350000AD8B40CEF9C
:10DE12006FF017EF6FF00250000AD8B4DAEF6EF02D
:10DE2200010AD8B4EEEF6EF017EF6FF01200015056
:10DE32000210D8A41FEF6FF021EF6FF023EF6FF005
:10DE42005AEF6FF00204D8B029EF6FF02BEF6FF0AA
:10DE52003BEF6FF0000E096E30EF6FF0092A0150B0
:10DE6200095CD8A037EF6FF039EF6FF02FEF6FF04A
:10DE72005AEF6FF0000E086E000E076E43EF6FF060
:10DE8200074A082AE00E036EFF0E046E01C005F079
:10DE920002C006F003500526045006220550075C16
:10DEA20006500858D8A058EF6FF05AEF6FF041EFC4
:10DEB2006FF01200000E136E000E126E000E156E41
:10DEC200000E146E000E176E000E166E000E026E1D
:10DED200020E016E18EC6FF065EC6BF00A50122620
:10DEE2000B5013227EEC6BF00A5014260B501522B5
:10DEF200164A172A17BE87EF6FF0175009E10A0E6C
:10DF0200165CD8A087EF6FF089EF6FF067EF6FF0C4
:10DF120012C001F013C002F0000E046E0A0E036E6E
:10DF2200A1EC6DF00EC0D9FF0FC0DAFF01C0DEFF19
:10DF320002C0DDFF14C001F015C002F0000E046E35
:10DF42000A0E036EA1EC6DF010C0D9FF11C0DAFF0A
:10DF520001C0DEFF02C0DDFF1200046EDBEF6FF0D6
:10DF620001B002D0869601D0868600EF70F001B033
:10DF720002D0859401D0858400EF70F001B002D008
:10DF8200879201D0878200EF70F001B002D08592B3
:10DF920001D0858200EF70F001B002D0839A01D0E7
:10DFA200838A00EF70F001B002D0839801D0838899
:10DFB20000EF70F00450026E036A0350000AD8B4F6
:10DFC200E5EF6FF000EF70F00250010AD8B4B1EF44
:10DFD2006FF0030AD8B4B8EF6FF0010AD8B4BFEFFC
:10DFE2006FF0070AD8B4C6EF6FF0010AD8B4D4EFC5
:10DFF2006FF0030AD8B4CDEF6FF000EF70F01200AB
:10E002000DC011F00EC012F0290E115C090E12584B
:10E01200D8A00EEF70F010EF70F014EF70F0090E50
:10E02200126E280E116E780E115C060E1258D8B0C0
:10E032001DEF70F01FEF70F023EF70F0060E126EFE
:10E04200780E116E0FC013F010C014F0290E135C7D
:10E05200090E1458D8A030EF70F032EF70F036EF9E
:10E0620070F0090E146E280E136E780E135C060EF5
:10E072001458D8B03FEF70F041EF70F045EF70F0F8
:10E08200060E146E780E136E11C005F012C006F063
:10E09200000E54EC70F013C005F014C006F0010E2F
:10E0A20054EC70F012000C6E000E016E0C5096ECE7
:10E0B2006EF0000E0B6E000E0A6E0A500B08076E11
:10E0C200010E086E000E096E072A6BEF70F0D890F1
:10E0D20008360936072E68EF70F00550081606500C
:10E0E200091608500910D8A479EF70F07CEF70F08F
:10E0F200010E7DEF70F0000E016E0C50D7EC6EF049
:10E10200010E016E0C5096EC6EF00B0E0A180B10FD
:10E11200D8A48EEF70F090EF70F095EF70F0010ED2
:10E12200016E0C5016EC6EF0000E016E0C5096EC67
:10E132006EF00A4A0B2A0B5009E10C0E0A5CD8A0B9
:10E14200A5EF70F0A7EF70F05EEF70F0000E016EB9
:10E152000C5016EC6EF0010E016E0C5096EC6EF047
:10E162001200033404340A6E0A50D8A4BBEF70F0D4
:10E17200BDEF70F0C7EF70F0000E016E000E026E80
:10E18200000E036E000E046E34EF71F001C005F054
:10E1920002C006F003C007F004C008F0200ED7EF5B
:10E1A20070F0D8900832073206320532E82ED2EFEC
:10E1B20070F00550096E038EFF0E0116FF0E021657
:10E1C200FF0E0316000E0416960E0A5E0ABEEEEF4E
:10E1D20070F0ECEF70F004EF71F00A50800A970FC4
:10E1E200D8B0F6EF70F0F8EF70F0FAEF70F0BDEF24
:10E1F20070F0D89004320332023201320A3EFAEF52
:10E2020070F01CEF71F01F0E0A640AEF71F00CEF50
:10E2120071F014EF71F0BDEF70F0D8900136023654
:10E22200033604360A060A50D8A41AEF71F01CEF1E
:10E2320071F00EEF71F00950D8B422EF71F024EFB3
:10E2420071F02CEF71F0041E031E021E016C000E11
:10E2520002220322042201C001F002C002F003C024
:10E2620003F004C004F01200000E1E6E4BEC6AF0C4
:10E272000009D8B43FEF71F041EF71F0B0EF71F0E7
:10E28200210E0E6E000E0F6E1F0E106E000E116E1E
:10E292005BEC6FF0800E186EFF0E196E20EE77F0B9
:10E2A200DECF1AF0DDCF1BF018501A2619501B22B0
:10E2B2001F501A5C20501B58D8B062EF71F064EF07
:10E2C20071F0B0EF71F0800E00017725186E000E2C
:10E2D2007821196E18501F5C19502058D8B074EF6D
:10E2E20071F076EF71F0B0EF71F06951215C6A5113
:10E2F2002258D8B07FEF71F081EF71F0B0EF71F07A
:10E302007351675D186E74516859196E1850215C0B
:10E3120019502258D8B090EF71F092EF71F098EF47
:10E3220071F07351675D216E74516859226E2150EC
:10E33200675D1C6E225068591D6ED8907431196E3B
:10E342007331186E1C50185C1D501958D8B0ACEFC0
:10E3520071F0AEEF71F0B0EF71F0010E1E6E1E5053
:10E36200D8B4B6EF71F0B8EF71F0BBEF71F0010EF7
:10E37200C5EF71F05950D8B4C1EF71F0C4EF71F02C
:10E38200010EC5EF71F0000E12008EB4CBEF71F0EA
:10E39200CEEF71F0010ECFEF71F0000E5C18D8A431
:10E3A200D5EF71F0D7EF71F0DBEF71F0000E5D6E1B
:10E3B200F0EF71F05D2A050E5D64E2EF71F0E4EFBB
:10E3C20071F0F0EF71F08EB4E9EF71F0ECEF71F0F3
:10E3D200010EEDEF71F0000E5C6E000E5D6E55ECFD
:10E3E2006AF00009D8A4F8EF71F0FAEF71F028EFA3
:10E3F20072F08EB0FFEF71F002EF72F0010E03EFD8
:10E4020072F0000E5918D8A409EF72F00BEF72F0F7
:10E4120010EF72F0000E0001646F2AEF72F000013B
:10E42200642B6451D8B418EF72F01AEF72F02AEF2D
:10E4320072F08EB01FEF72F022EF72F0010E23EF36
:10E4420072F0000E596E000E646F2AEF72F0010E28
:10E45200596E8EBE2FEF72F032EF72F0010E33EF73
:10E4620072F0000E5A18D8A439EF72F03BEF72F036
:10E472003FEF72F0000E5B6E54EF72F05B2A050EF6
:10E482005B6446EF72F048EF72F054EF72F08EBEAA
:10E492004DEF72F050EF72F0010E51EF72F0000E7C
:10E4A2005A6E000E5B6E80EC6AF012005FEC6AF04E
:10E4B2000009D8B45FEF72F061EF72F066EF72F0AC
:10E4C2005DEC6CF0020E0001636F4EEC6BF0000924
:10E4D200D8B46EEF72F070EF72F077EF72F0000E58
:10E4E200016E060EAEEC6FF07CEF72F0010E016E63
:10E4F200060EAEEC6FF01C0E0E6E000E0F6E1E0EB0
:10E50200106E000E116E5BEC6FF0D890000172314C
:10E51200196E7131186E67511826685119221C50F4
:10E52200185C1D501958D8B099EF72F09BEF72F039
:10E53200A2EF72F0000E016E010EAEEC6FF0A7EFCB
:10E5420072F0010E016E010EAEEC6FF0D890000178
:10E552007431196E7331186E20EE67F0DECF1AF047
:10E56200DDCF1BF018501A5E19501B5A1A501C5C52
:10E572001B501D58D8B0C0EF72F0C2EF72F0C9EF55
:10E5820072F0000E016E020EAEEC6FF0CEEF72F082
:10E59200010E016E020EAEEC6FF0D89000018231D6
:10E5A200196E8131186E77511826785119221E5032
:10E5B200185C1F501958D8B0E1EF72F0E3EF72F017
:10E5C200EAEF72F0000E016E040EAEEC6FF0EFEFA8
:10E5D20072F0010E016E040EAEEC6FF0D8900001E5
:10E5E2008431196E8331186E20EE77F0DECF1AF087
:10E5F200DDCF1BF018501A5E19501B5A1A501E5CC0
:10E602001B501F58D8B008EF73F00AEF73F011EFE8
:10E6120073F0000E016E030EAEEC6FF016EF73F0A6
:10E62200010E016E030EAEEC6FF01200180E0E6EAC
:10E63200000E0F6E1A0E106E000E116E5BEC6FF074
:10E64200185000016F5D19507059D8B02BEF73F05C
:10E652002DEF73F031EF73F018C06FF019C070F046
:10E662006D51185C6E511958D8B03AEF73F03CEF07
:10E6720073F040EF73F018C06DF019C06EF01A50CD
:10E682007F5D1B508059D8B049EF73F04BEF73F0A8
:10E692004FEF73F01AC07FF01BC080F07D511A5CFF
:10E6A2007E511B58D8B058EF73F05AEF73F05EEFFB
:10E6B20073F01AC07DF01BC07EF06AEC6AF00009AC
:10E6C200D8B466EF73F068EF73F0EDEF73F000010A
:10E6D20067516F5D716F68517059726F725109E1C4
:10E6E200DD0E715DD8A078EF73F07AEF73F07EEFF4
:10E6F20073F0000E726FDC0E716F6D51675D736F98
:10E702006E516859746F745109E1DD0E735DD8A0C2
:10E712008DEF73F08FEF73F093EF73F0000E746F61
:10E72200DC0E736F77517F5D816F78518059826FF4
:10E73200825109E1DD0E815DD8A0A2EF73F0A4EF52
:10E7420073F0A8EF73F0000E826FDC0E816F7D51C3
:10E75200775D836F7E517859846F845109E1DD0EB4
:10E76200835DD8A0B7EF73F0B9EF73F0BDEF73F02C
:10E77200000E846FDC0E836F73C00CF074C00DF05A
:10E78200000E12EC6BF071C00CF072C00DF0020EB4
:10E7920012EC6BF083C00CF084C00DF0040E12EC8E
:10E7A2006BF081C00CF082C00DF0060E12EC6BF023
:10E7B200DE0E0D6EAD0E0C6E080E12EC6BF0AA0E94
:10E7C2000D6E550E0C6E0A0E12EC6BF0000E2DEC57
:10E7D2006AF00E0E0001636F1200096E0950D8B480
:10E7E200F5EF73F0F7EF73F019EF74F004BEFEEF7C
:10E7F20073F0FCEF73F019EF74F001C005F002C082
:10E8020006F003C007F004C008F0051E061E071E2E
:10E81200081E052A000E06220722082205C00BF058
:10E8220006C00CF007C00DF008C00EF021EF74F026
:10E8320001C00BF002C00CF003C00DF004C00EF0DA
:10E842000150021003100410D8A42AEF74F02CEF28
:10E8520074F036EF74F0000E016E000E026E000EC0
:10E86200036E000E046EC7EF74F0960E0A6E40EF50
:10E8720074F00A2AD8900E320D320C320B32000E8E
:10E882000B14056E000E0C14066E000E0D14076EAE
:10E89200FE0E0E14086E0550061007100810D8A4BC
:10E8A20055EF74F057EF74F03AEF74F065EF74F0CF
:10E8B2000A2A010E0B26000E0C220D220E22D890DF
:10E8C2000E320D320C320B32000E0B14056E000E9E
:10E8D2000C14066E000E0D14076EFF0E0E14086E59
:10E8E2000550061007100810D8A47AEF74F07CEFD8
:10E8F20074F059EF74F084EF74F00A06D8900B3676
:10E902000C360D360E360DBE89EF74F08BEF74F0B7
:10E9120093EF74F0020E0A6091EF74F093EF74F0CB
:10E922007EEF74F00AB098EF74F09AEF74F09BEFF8
:10E9320074F00D9ED8900A320AC005F0066A076A82
:10E94200086A05C008F0076A066A056A05500B12D4
:10E9520006500C1207500D1208500E120950D8B46E
:10E96200B5EF74F0B7EF74F0BFEF74F004BEBEEF12
:10E9720074F0BCEF74F0BFEF74F00E8E0BC001F0B8
:10E982000CC002F00DC003F00EC004F01200010E24
:10E992000D6E020E0001666F020E656F020E686F49
:10E9A200020E676F010E6A6FC20E696F020E6C6F04
:10E9B200420E6B6F010E6E6F260E6D6F020E706F40
:10E9C200DE0E6F6F000E726FDC0E716F000E746FD1
:10E9D200DC0E736F020E766F020E756F020E786F89
:10E9E200020E776F010E7A6FC20E796F020E7C6F84
:10E9F200420E7B6F010E7E6F260E7D6F020E806FC0
:10EA0200DE0E7F6F000E826FDC0E816F000E846F50
:10EA1200DC0E836F090E066E000E076E080E75EC93
:10EA22006AF00B0E066E000E076E0A0E75EC6AF0A7
:10EA3200AD0E091807E1DE0E0A18D8A423EF75F00F
:10EA420025EF75F031EF75F0550E0B1809E1AA0E9E
:10EA52000C18D8B42FEF75F031EF75F034EF75F074
:10EA6200000EC2EF75F0730E066E000E076E000EFA
:10EA720075EC6AF0710E066E000E076E020E75ECF2
:10EA82006AF0830E066E000E076E040E75EC6AF0D5
:10EA9200810E066E000E076E060E75EC6AF000011E
:10EAA200725107E1DD0E715DD8B05AEF75F05CEF7F
:10EAB20075F067EF75F0725107E11B0E715DD8B00A
:10EAC20065EF75F067EF75F06DEF75F0000E0D6E86
:10EAD200000E726FDC0E716F745107E1DD0E735D13
:10EAE200D8B076EF75F078EF75F083EF75F074516A
:10EAF20007E11B0E735DD8B081EF75F083EF75F0FF
:10EB020089EF75F0000E0D6E000E746FDC0E736FE0
:10EB1200825107E1DD0E815DD8B092EF75F094EF7E
:10EB220075F09FEF75F0825107E11B0E815DD8B041
:10EB32009DEF75F09FEF75F0A5EF75F0000E0D6E6D
:10EB4200000E826FDC0E816F845107E1DD0E835D62
:10EB5200D8B0AEEF75F0B0EF75F0BBEF75F0845141
:10EB620007E11B0E835DD8B0B9EF75F0BBEF75F00E
:10EB7200C1EF75F0000E0D6E000E846FDC0E836F18
:10EB82000D50120028EC6AF023EC6AF01EEC6AF0D9
:10EB920085EC6CF019EC6AF0DEEC6CF0B4EC6BF026
:10EBA2006AEC6DF0070E066ED00E056E000E54EC88
:10EBB20070F0070E066ED00E056E010E54EC70F06A
:10EBC200000E586E000E576E000E026E920E016E0F
:10EBD20018EC6FF0574A582A58BEF9EF75F0D00E6C
:10EBE200575C070E5858D8A0F9EF75F0FBEF75F097
:10EBF200E5EF75F0C8EC74F0566E5650D8A404EFE9
:10EC020076F006EF76F042EF76F0000E2DEC6AF029
:10EC1200000E586E000E576EC6EC71F0000E026EBA
:10EC2200920E016E18EC6FF0574A582A58BE23EF25
:10EC320076F0585009E1960E575CD8A023EF76F093
:10EC420025EF76F00DEF76F0010E2DEC6AF0000E56
:10EC5200586E000E576E000E026E920E016E18EC88
:10EC62006FF0574A582A58BE40EF76F0585009E1E3
:10EC7200960E575CD8A040EF76F042EF76F02CEF7C
:10EC820076F0000E2DEC6AF0000E586E000E576EF4
:10EC9200C6EC71F0000E026E920E016E18EC6FF06F
:10ECA200574A582A58BE5FEF76F0585009E1960E3F
:10ECB200575CD8A05FEF76F061EF76F049EF76F01F
:10ECC200010E2DEC6AF0070E066ED00E056E000ED8
:10ECD20054EC70F0070E066ED00E056E010E54EC69
:10ECE20070F0010E0001636FC6EC71F0ADEF76F0CB
:10ECF20056EC6EF0EFEF76F09AEC6AF0EFEF76F00A
:10ED0200F3EC6BF0EFEF76F03BEC7DF0EFEF76F0AB
:10ED120000EC6BF0EFEF76F08CEC6AF0EFEF76F050
:10ED220057EC72F0EFEF76F03BEC6AF0EFEF76F033
:10ED3200CBEC6AF0EFEF76F01AEC6AF0EFEF76F0D8
:10ED42000CEC6DF0EFEF76F017EC73F0EFEF76F07E
:10ED5200BAEC6AF0EFEF76F000016351546E556A37
:10ED62005550000AD8B4B8EF76F0EFEF76F0545071
:10ED7200010AD8B479EF76F0030AD8B47DEF76F0C1
:10ED8200010AD8B481EF76F0070AD8B485EF76F09D
:10ED9200010AD8B489EF76F0030AD8B48DEF76F081
:10EDA200010AD8B491EF76F00E0AD8B495EF76F056
:10EDB200030AD8B499EF76F0010AD8B49DEF76F041
:10EDC200070AD8B4A1EF76F0010AD8B4A5EF76F01D
:10EDD200030AD8B4A9EF76F0EFEF76F0000E026ED8
:10EDE200160E016E18EC6FF075EF76F000EF00F082
:10EDF2001250800B1F6E12501224266E11AE04EFB9
:10EE020077F006EF77F007EF77F026802650D8B438
:10EE12000DEF77F00FEF77F024EF77F02628D8A4E4
:10EE220015EF77F017EF77F01FEF77F0000E0F6E08
:10EE3200000E106E000E116E000E126E118E000E7C
:10EE4200126E2CEF77F0000E0F6E000E106E000E99
:10EE5200116E000E126E1650800B1F1A16501624D9
:10EE6200276E15AE37EF77F039EF77F03AEF77F09C
:10EE720027802750D8B440EF77F042EF77F057EF72
:10EE820077F02728D8A448EF77F04AEF77F052EFCF
:10EE920077F0000E136E000E146E000E156E000E4B
:10EEA200166E158E000E166E5FEF77F0000E136E63
:10EEB200000E146E000E156E000E166E1350141016
:10EEC20015101610D8A468EF77F06AEF77F082EF8A
:10EED20077F0000E0F6E000E106E000E116E000E17
:10EEE200126E800E11127F0E12121F5012120FC0DC
:10EEF2000FF010C010F011C011F012C012F0C5EFE7
:10EF020078F02650D8A488EF77F08AEF77F094EF64
:10EF120077F0000E0F6E000E106E000E116E000ED6
:10EF2200126EC5EF78F0275026C017F0186A175EE8
:10EF3200000E185A7F0E1724206E000E1820216E24
:10EF42000FC01BF010C01CF011C01DF012C01EF04B
:10EF5200000E0F6E000E106E000E116E000E126E7D
:10EF6200000E226E000E236E000E246E000E256E21
:10EF7200000E276EF5EF77F02750D8B4C3EF77F085
:10EF8200C5EF77F0DCEF77F0D8901B361C361D36D4
:10EF92001E36D8900F3610361136123625AED4EF03
:10EFA20077F0D6EF77F0D7EF77F00F80D890223650
:10EFB20023362436253613501B5C14501C5815502A
:10EFC2001D5816501E58D8A0E9EF77F0EBEF77F0F6
:10EFD200F4EF77F0258C13501B5E14501C5A155019
:10EFE2001D5A16501E5A272A190E2764FBEF77F076
:10EFF200FDEF77F0BDEF77F01B501C101D101E10B7
:10F00200D8B406EF78F008EF78F020EF78F022809D
:10F0120020EF78F0D8900F3610361136123625AE22
:10F0220015EF78F017EF78F018EF78F00F80D8909E
:10F0320022362336243625362006D8A0210611AEE4
:10F0420025EF78F027EF78F00BEF78F0000E276EBF
:10F0520025AE2EEF78F030EF78F054EF78F0FF0E17
:10F062002214176EFF0E2314186EFF0E2414196E4D
:10F072007F0E25141A6E1750181019101A10D8B4D2
:10F0820045EF78F047EF78F04BEF78F0010E276EFE
:10F0920054EF78F00FA050EF78F052EF78F054EF81
:10F0A20078F047EF78F02750D8B45AEF78F05CEF59
:10F0B20078F080EF78F0010E0F26000E1022112258
:10F0C200122212A067EF78F069EF78F080EF78F003
:10F0D2000FC017F010C018F011C019F012C01AF0CA
:10F0E2001A341A3219321832173217C00FF018C0F8
:10F0F20010F019C011F01AC012F0204A212A21BEC4
:10F102008BEF78F0215008E12028D8A08BEF78F01F
:10F112008DEF78F098EF78F0000E216E2068000EE7
:10F122000F6E000E106E000E116E000E126E21BEDA
:10F13200A5EF78F0215006E12004D8B0A3EF78F0D3
:10F14200A5EF78F0B3EF78F0000E216E000E206E7E
:10F15200000E0F6E000E106E000E116E000E126E7B
:10F16200000E1F6E20C026F026A0BAEF78F0BCEF8A
:10F1720078F0BFEF78F0118EC0EF78F0119ED89042
:10F182002630126E76EF77F012002B50800B346E21
:10F192002B502B243A6E2AAED1EF78F0D3EF78F0D1
:10F1A200D4EF78F03A803A50D8B4DAEF78F0DCEF66
:10F1B20078F0EFEF78F03A28D8A4E2EF78F0E4EFB5
:10F1C20078F0ECEF78F0000E286E000E296E000E3B
:10F1D2002A6E000E2B6E2A8EF7EF78F0000E286E44
:10F1E200000E296E000E2A6E000E2B6E2F50800B21
:10F1F200341A2F502F24396E2EAE02EF79F004EF1D
:10F2020079F005EF79F039803950D8B40BEF79F005
:10F212000DEF79F020EF79F03928D8A413EF79F0C7
:10F2220015EF79F01DEF79F0000E2C6E000E2D6EA9
:10F23200000E2E6E000E2F6E2E8E28EF79F0000E2D
:10F242002C6E000E2D6E000E2E6E000E2F6E39509B
:10F25200D8B42EEF79F030EF79F038EF79F03A50F8
:10F26200D8A436EF79F038EF79F042EF79F0000E5A
:10F27200286E000E296E000E2A6E000E2B6EDAEF3B
:10F282007AF02E502802F3CF3FF0F4CF40F03F50F7
:10F29200356E366A376A386A40503B6E3C6A3D6A60
:10F2A2003E6A2D502902F3CF3FF0F4CF40F03F5099
:10F2B2003526000E36223722382240503B26000ED9
:10F2C2003C223D223E222C502A02F3CF3FF0F4CFC3
:10F2D20040F03F503526000E362237223822405069
:10F2E2003B26000E3C223D223E2237C038F036C07B
:10F2F20037F035C036F0356A2C502902F3CF3FF093
:10F30200F4CF40F03F50352640503622000E3722CF
:10F31200000E38222D502802F3CF3FF0F4CF40F0F8
:10F322003F50352640503622000E3722000E38223A
:10F3320037C038F036C037F035C036F0356A2C5059
:10F342002802F3CF3FF0F4CF40F03F503526405033
:10F352003622000E3722000E38222E502902F3CF19
:10F362003FF0F4CF40F03F503B2640503C22000E8D
:10F372003D22000E3E222D502A02F3CF3FF0F4CF61
:10F3820040F03F503B2640503C22000E3D22000EF2
:10F392003E222E502A02F3CF3FF0F4CF40F03F50EE
:10F3A200306E4050316E326A336A32C033F031C04F
:10F3B20032F030C031F0306A30503B2631503C22BE
:10F3C20032503D2233503E2235C030F036C031F04B
:10F3D20037C032F038C033F0190EF5EF79F0D8901B
:10F3E2003332323231323032E82EF0EF79F03050AF
:10F3F2003B2631503C2232503D2233503E2237C010
:10F4020038F036C037F035C036F0356A39503AC078
:10F4120030F0316A3026000E3122820E30243F6EE7
:10F42200FF0E3120406E2BEF7AF0D8903B363C36FF
:10F432003D363E3638AE20EF7AF022EF7AF023EFF7
:10F442007AF03B80D89035363636373638363F0636
:10F45200D8A040063DAE30EF7AF032EF7AF016EFE8
:10F462007AF0000E396E38AE39EF7AF03BEF7AF06F
:10F472005FEF7AF0FF0E3514306EFF0E3614316EE8
:10F48200FF0E3714326E7F0E3814336E3050311047
:10F4920032103310D8B450EF7AF052EF7AF056EFC0
:10F4A2007AF0010E396E5FEF7AF03BA05BEF7AF0F3
:10F4B2005DEF7AF05FEF7AF052EF7AF03950D8B41C
:10F4C20065EF7AF067EF7AF08BEF7AF0010E3B2668
:10F4D200000E3C223D223E223EA072EF7AF074EFF3
:10F4E2007AF08BEF7AF03BC030F03CC031F03DC097
:10F4F20032F03EC033F033343332323231323032D2
:10F5020030C03BF031C03CF032C03DF033C03EF081
:10F512003F4A402A40BE96EF7AF0405008E13F2829
:10F52200D8A096EF7AF098EF7AF0A2EF7AF0000E78
:10F532003B6E000E3C6E800E3D6E7F0E3E6ED0EF37
:10F542007AF040BEAFEF7AF0405006E13F04D8B007
:10F55200ADEF7AF0AFEF7AF0BBEF7AF0000E3B6ED0
:10F56200000E3C6E000E3D6E000E3E6E000E346EBE
:10F57200D0EF7AF03FC03AF0FF0E3B16FF0E3C167A
:10F582007F0E3D16000E3E163AA0CAEF7AF0CCEF7F
:10F592007AF0CDEF7AF03D8ED8903A303E6E34500C
:10F5A2003E123BC028F03CC029F03DC02AF03EC0CC
:10F5B2002BF012000450800B0D6E045004240F6EC9
:10F5C20003AEE6EF7AF0E8EF7AF0E9EF7AF00F8037
:10F5D2000F50D8B4EFEF7AF0F1EF7AF006EF7BF04C
:10F5E2000F28D8A4F7EF7AF0F9EF7AF001EF7BF069
:10F5F200000E016E000E026E000E036E000E046E0F
:10F60200038E000E046E0EEF7BF0000E016E000EF4
:10F61200026E000E036E000E046E0850800B0E6E1A
:10F622000D500E18D8B418EF7BF01AEF7BF01BEFD9
:10F632007BF00D8C085008240E6E07AE23EF7BF092
:10F6420025EF7BF026EF7BF00E800E50D8B42CEF26
:10F652007BF02EEF7BF043EF7BF00E28D8A434EF43
:10F662007BF036EF7BF03EEF7BF0000E056E000E76
:10F67200066E000E076E000E086E078E000E086EF4
:10F682004BEF7BF0000E056E000E066E000E076E4D
:10F69200000E086E0F500E5CD8B052EF7BF054EFA4
:10F6A2007BF07BEF7BF00DAC59EF7BF05BEF7BF0F7
:10F6B2005DEF7BF0800E0D1A0FC010F00EC00FF040
:10F6C20010C00EF001C010F005C001F010C005F02E
:10F6D20002C010F006C002F010C006F003C010F025
:10F6E20007C003F010C007F004C010F008C004F017
:10F6F20010C008F0000E106E0F500EC009F00A6A1A
:10F70200095E000E0A5A0ABE90EF7BF00A5009E128
:10F712001A0E095CD8A090EF7BF092EF7BF0C9EF54
:10F722007BF00150021003100410D8A49BEF7BF071
:10F732009EEF7BF0010E9FEF7BF0000E106E000E2D
:10F74200016E000E026E000E036E000E046E0EC0FD
:10F752000FF0D2EF7BF010A0B1EF7BF0B3EF7BF0B4
:10F76200B9EF7BF0D89010300109106EBBEF7BF03F
:10F77200D890103201A0C0EF7BF0C2EF7BF0C3EF54
:10F782007BF0108E043404320332023201320F2A2B
:10F792000E500F5CD8A0D0EF7BF0D2EF7BF0ACEF35
:10F7A2007BF00DBCD7EF7BF0D9EF7BF019EF7CF04B
:10F7B2000F50D8A4DFEF7BF0E1EF7BF0EBEF7BF0B3
:10F7C200000E016E000E026E000E036E000E046E3D
:10F7D2003AEF7DF00550012606500222075003221F
:10F7E2000850042204A0F8EF7BF0FAEF7BF0A6EFBA
:10F7F2007CF010A0FFEF7BF001EF7CF007EF7CF0D4
:10F80200D89010300109106E09EF7CF0D8901032B8
:10F8120001A00EEF7CF010EF7CF011EF7CF0108E67
:10F82200043404320332023201320F2AA6EF7CF092
:10F832000550015C06500258075003580450800AD4
:10F84200096E0850800A0958D8B02AEF7CF02CEFD4
:10F852007CF057EF7CF00150055C096E02500658AF
:10F862000A6E035007580B6E045008580C6EFF0EB8
:10F872000924016EFF0E0A20026EFF0E0B20036E9A
:10F88200FF0E0C20046E800E0D1A106C1050D8A4BE
:10F892004DEF7CF04FEF7CF05FEF7CF0010E012624
:10F8A200000E0222032204225FEF7CF00550015E6B
:10F8B2000650025A0750035A0850045A01500210C7
:10F8C20003100410D8A468EF7CF06AEF7CF09FEF7D
:10F8D2007CF01050D8A470EF7CF072EF7CF09FEFB8
:10F8E2007CF0000E016E000E026E000E036E000E22
:10F8F200046E3AEF7DF0D8900136023603360436B4
:10F9020010AE86EF7CF088EF7CF089EF7CF001800E
:10F9120010A08EEF7CF090EF7CF094EF7CF0D8801A
:10F92200103696EF7CF0D89010360F50D8B49CEF7A
:10F932007CF09EEF7CF09FEF7CF00F0603AEA4EF0D
:10F942007CF0A6EF7CF07CEF7CF0000E0E6E10AE29
:10F95200ADEF7CF0AFEF7CF0C7EF7CF010C009F0A8
:10F962007F0E0916D8B4B8EF7CF0BAEF7CF0BEEF88
:10F972007CF0010E0E6EC7EF7CF001A0C3EF7CF0AD
:10F98200C5EF7CF0C7EF7CF0BAEF7CF00E50D8B434
:10F99200CDEF7CF0CFEF7CF0FAEF7CF0010E012688
:10F9A200000E02220322042204A0DAEF7CF0DCEF34
:10F9B2007CF0FAEF7CF001C009F002C00AF003C04B
:10F9C2000BF004C00CF00C340C320B320A32093248
:10F9D20009C001F00AC002F00BC003F00CC004F031
:10F9E2000F28D8B4F7EF7CF0F9EF7CF0FAEF7CF057
:10F9F2000F2A0F28D8B400EF7DF002EF7DF00AEF56
:10FA02007DF00F50D8A408EF7DF00AEF7DF01CEFD7
:10FA12007DF0000E016E000E026E000E036E000EEF
:10FA2200046E0F50D8A418EF7DF01AEF7DF01CEF92
:10FA32007DF0000E0D6E0FA021EF7DF023EF7DF023
:10FA420026EF7DF0038E27EF7DF0039ED8900F30D6
:10FA5200046E0DAE2FEF7DF031EF7DF032EF7DF0D1
:10FA6200048E01C001F002C002F003C003F004C022
:10FA720004F01200010E476E070E446ED00E436E64
:10FA8200070E466ED00E456E6AEC6AF00009D8B4D5
:10FA92004DEF7DF04FEF7DF054EF7DF00C0E000145
:10FAA200636F000E476E5FEC6AF00009D8B45CEF3A
:10FAB2007DF05EEF7DF063EF7DF0050E0001636F78
:10FAC200000E476E35EC71F00009D8B46BEF7DF093
:10FAD2006DEF7DF072EF7DF0090E0001636F000E95
:10FAE200476E4750D8B478EF7DF07AEF7DF0F5EFAE
:10FAF2007FF0480E0E6E000E0F6E4A0E106E000E54
:10FB0200116E5BEC6FF0485000016B5D49506C590F
:10FB1200D8B08EEF7DF090EF7DF025EF7EF067514B
:10FB22007125416E68517221426E4850415C4950C4
:10FB32004258D8B09FEF7DF0A1EF7DF0A7EF7DF0A6
:10FB420067517125486E68517221496E000E506EE0
:10FB5200000E516EFA0E526E440E536E6751485C9F
:10FB6200416E68514958426E41C001F042C002F0F4
:10FB7200036A046A000EEEEC73F001C04CF002C09E
:10FB82004DF003C04EF004C04FF071C001F072C0DE
:10FB920002F0036A046A000EEEEC73F001C013F087
:10FBA20002C014F003C015F004C016F04CC00FF0F0
:10FBB2004DC010F04EC011F04FC012F0F9EC76F0CB
:10FBC2000FC028F010C029F011C02AF012C02BF08B
:10FBD200000E2C6E800E2D6E1D0E2E6E440E2F6E9C
:10FBE200C6EC78F028C04CF029C04DF02AC04EF087
:10FBF2002BC04FF050C001F051C002F052C003F0D0
:10FC020053C004F04CC005F04DC006F04EC007F0E2
:10FC12004FC008F0DBEC7AF001C050F002C051F0A6
:10FC220003C052F004C053F050C001F051C002F0C2
:10FC320052C003F053C004F0B2EC70F001C043F0C4
:10FC420002C044F0C2EF7EF06951485C6A514958E3
:10FC5200D8B02EEF7EF030EF7EF0C2EF7EF04BECAC
:10FC62006AF00009D8A438EF7EF03AEF7EF0C2EFD6
:10FC72007EF000017351675D416E74516859426EA6
:10FC82004150485C42504958D8B04AEF7EF04CEFA0
:10FC92007EF052EF7EF07351675D486E7451685981
:10FCA200496E000E506E000E516EFA0E526E440EE8
:10FCB200536E4850675D416E49506859426E41C06B
:10FCC20001F042C002F0036A046A000EEEEC73F027
:10FCD20001C04CF002C04DF003C04EF004C04FF022
:10FCE20073C001F074C002F0036A046A000EEEEC05
:10FCF20073F001C013F002C014F003C015F004C089
:10FD020016F04CC00FF04DC010F04EC011F04FC0B5
:10FD120012F0F9EC76F00FC028F010C029F011C0F3
:10FD22002AF012C02BF0000E2C6E800E2D6E1D0ECE
:10FD32002E6E440E2F6EC6EC78F028C04CF029C00F
:10FD42004DF02AC04EF02BC04FF050C011F051C000
:10FD520012F052C013F053C014F04CC015F04DC055
:10FD620016F04EC017F04FC018F015EC6CF011C031
:10FD720050F012C051F013C052F014C053F015EFFE
:10FD82007EF04A5000017B5D4B507C59D8B0CCEFDD
:10FD92007EF0CEEF7EF063EF7FF077518125416EEA
:10FDA20078518221426E4A50415C4B504258D8B041
:10FDB200DDEF7EF0DFEF7EF0E5EF7EF0775181251B
:10FDC2004A6E785182214B6E000E506E000E516EBB
:10FDD200FA0E526E440E536E77514A5C416E785160
:10FDE2004B58426E41C001F042C002F0036A046AFD
:10FDF200000EEEEC73F001C04CF002C04DF003C0F7
:10FE02004EF004C04FF081C001F082C002F0036ADC
:10FE1200046A000EEEEC73F001C013F002C014F09D
:10FE220003C015F004C016F04CC00FF04DC010F026
:10FE32004EC011F04FC012F0F9EC76F00FC028F06E
:10FE420010C029F011C02AF012C02BF0000E2C6E47
:10FE5200800E2D6E1D0E2E6E440E2F6EC6EC78F0A7
:10FE620028C04CF029C04DF02AC04EF02BC04FF0F4
:10FE720050C001F051C002F052C003F053C004F070
:10FE82004CC005F04DC006F04EC007F04FC008F060
:10FE9200DBEC7AF001C050F002C051F003C052F026
:10FEA20004C053F050C001F051C002F052C003F040
:10FEB20053C004F0B2EC70F001C045F002C046F04D
:10FEC200F5EF7FF079514A5C7A514B58D8B06CEF1C
:10FED2007FF06EEF7FF0F5EF7FF08351775D416E3B
:10FEE20084517859426E41504A5C42504B58D8B0C6
:10FEF2007DEF7FF07FEF7FF085EF7FF08351775DBD
:10FF02004A6E845178594B6E000E506E000E516E3F
:10FF1200FA0E526E440E536E4A50775D416E4B504C
:10FF22007859426E41C001F042C002F0036A046A8D
:10FF3200000EEEEC73F001C04CF002C04DF003C0B5
:10FF42004EF004C04FF083C001F084C002F0036A97
:10FF5200046A000EEEEC73F001C013F002C014F05C
:10FF620003C015F004C016F04CC00FF04DC010F0E5
:10FF72004EC011F04FC012F0F9EC76F00FC028F02D
:10FF820010C029F011C02AF012C02BF0000E2C6E06
:10FF9200800E2D6E1D0E2E6E440E2F6EC6EC78F066
:10FFA20028C04CF029C04DF02AC04EF02BC04FF0B3
:10FFB20050C011F051C012F052C013F053C014F0EF
:10FFC2004CC015F04DC016F04EC017F04FC018F0DF
:10FFD20015EC6CF011C050F012C051F013C052F089
:10FFE20014C053F053EF7FF043C00DF044C00EF045
:0EFFF20045C00FF046C010F001EC70F0120098
:020000040020DA
:10000000FF0FFF0FFF0FFF0FFF0FFF0FFF0FFF0F80
:020000040030CA
:0C000000FADFFDF79FFFFFCFFFFFFFFFBF
:00000001FF
