:0400000053EF6BF05F
:10D40B0001120012008C9087901200030E00016035
:10D41B006F12008B90010E19EC6AF01200FAEC6A95
:10D42B00F0F28AF28C1200016E01B002D0869001EC
:10D43B00D086801200016E01B002D0879001D08798
:10D44B00801200010E20EC6AF00A0E0001606F12D0
:10D45B000081B233EF6AF035EF6AF02EEF6AF0011C
:10D46B000E12008EA23CEF6AF03FEF6AF0010E4005
:10D47B00EF6AF0000E12008EAA46EF6AF049EF6ACF
:10D48B00F0010E4AEF6AF0000E12008C928B968A16
:10D49B00948A92889A8782868685848582838A126B
:10D4AB00005A50D8B45CEF6AF05FEF6AF0010E607F
:10D4BB00EF6AF0000E12005C50D8B467EF6AF06AA6
:10D4CB00EF6AF0010E6BEF6AF0000E1200086E02AD
:10D4DB000E016E06C002F007C003F00850C2EC6BE1
:10D4EB00F01200010E026EF40E016E05EC6CF001F1
:10D4FB000E19EC6AF0030E0001606F120056EC6A15
:10D50B00F00009D8A48CEF6AF08EEF6AF091EF6A05
:10D51B00F0070E0001606F1200A9EC6CF0070E0211
:10D52B006ED00E016E05EC6CF0010E19EC6AF00674
:10D53B000E0001606F120061EC6AF00009D8A4A91B
:10D54B00EF6AF0ABEF6AF0B1EF6AF0010E19EC6A1B
:10D55B00F0010E0001606F120010EC71F00009D8A1
:10D56B00A4BAEF6AF0BCEF6AF0C2EF6AF00B0E00E0
:10D57B0001606F000E20EC6AF01200000E0A6E00C4
:10D58B000E026E920E016EF4EC6EF00A2A130E0A66
:10D59B0064D2EF6AF0D4EF6AF0C5EF6AF0120000C4
:10D5AB000E0A6E000E026E920E016EF4EC6EF00A15
:10D5BB002A630E0A64E4EF6AF0E6EF6AF0D7EF6ACB
:10D5CB00F012000E6E0CC00FF00DC010F0020E0426
:10D5DB006E0F0E056E000E066E000E086E010E0726
:10D5EB006E0E50D6EC6CF01200BF50F00B0109BF61
:10D5FB006EE00EBE16BD508F0B4009BD6EF00EBD1A
:10D60B00169C0EBC6E0E01BE93C683BD8E1200011E
:10D61B006E01B002D0879201D0878201B002D08612
:10D62B009601D0868601B002D0859401D085840105
:10D63B00B002D0859201D08582120000016151D8D1
:10D64B00B42AEF6BF02CEF6BF038EF6BF05850D82F
:10D65B00B432EF6BF035EF6BF0010E36EF6BF00081
:10D66B000E39EF6BF0000E1200C00E0F015F1700AA
:10D67B000E026E0C0E016EF4EC6EF0608060B04921
:10D68B00EF6BF04BEF6BF044EF6BF06450030B0C54
:10D69B006E63500A6E0CC00BF012000B0EF66ED4BC
:10D6AB000EF76E000EF86E0900F5CF84F000EE60F9
:10D6BB00F0240EEE6AE806FDE15D6A5C6A5B6A5A6D
:10D6CB006A596A586A000EF86E0001C1EF75F00FC7
:10D6DB00015F51C00B01095F6F000E026E160E0148
:10D6EB006EF4EC6EF0608060B07EEF6BF080EF6BF1
:10D6FB00F079EF6BF06450030B0C6E63500A6E0CF9
:10D70B00C00BF01200026E3F0E811602C07EFF00AE
:10D71B000E7F6E01C080FF8184000EF2BE010E03EE
:10D72B006EF29E550E826EAA0E826E818203B0023D
:10D73B00D0F29E01D0F28E819412000F0111811153
:10D74B008360986084609CF80E5A17FC0E5817582B
:10D75B00995751C00B0709576F000E5E6F040E5C93
:10D76B006FE00E5D17000E666E000E676E000E7397
:10D77B006E000E726E608E1200046E000E056ED877
:10D78B00EF6BF03F0E8116045005247E6E000E7F6A
:10D79B006E818005500224D96E000E0320DA6E8054
:10D7AB00CFDFFF052A0150055CD8A0DFEF6BF0E15E
:10D7BB00EF6BF0C7EF6BF01200000E151A000E1690
:10D7CB001A000E171A800E181A11C001F012C0029F
:10D7DB00F013C003F014C004F015C005F016C0061A
:10D7EB00F017C007F018C008F0D3EC7AF001C011A5
:10D7FB00F002C012F003C013F004C014F0120000CA
:10D80B000E046E000E036E1EEF6CF0000E066E0023
:10D81B000E056E054A062A065009E1E00E055CD896
:10D82B00A01AEF6CF01CEF6CF00FEF6CF0034A04D6
:10D83B002A0150035C02500458D8A027EF6CF02942
:10D84B00EF6CF00BEF6CF01200010E0DEC6BF0C3F4
:10D85B00EC6AF0000E0DEC6BF0C3EC6AF0010E0DF0
:10D86B00EC6BF0C3EC6AF0000E0DEC6BF0C3EC6AE2
:10D87B00F0010E0DEC6BF0C3EC6AF0000E0DEC6BCF
:10D88B00F0D5EC6AF0010E0DEC6BF0D5EC6AF0D52F
:10D89B00EC6AF0D5EC6AF0120061EC6AF00009D882
:10D8AB00A45AEF6CF05CEF6CF07CEF6CF0010E198E
:10D8BB00EC6AF07AEC6DF00009D8B467EF6CF069A4
:10D8CB00EF6CF07CEF6CF066C06EF067C06FF066CB
:10D8DB00C06CF067C06DF076C07EF077C07FF076DD
:10D8EB00C07CF077C07DF00D0E0001606F12008BD5
:10D8FB00980F0126998B9A269B8B9C269D8B9E2697
:10D90B009F8B9426958B922693000E016E000EF240
:10D91B00EC6DF0000E016E010EF2EC6DF0010E01DC
:10D92B006E000E72EC6EF0010E016E010E72EC6E5B
:10D93B00F0000E016E000EB3EC6EF0000E016E01E6
:10D94B000EB3EC6EF01200000E0DEC6BF0C3EC6A34
:10D95B00F0010E0DEC6BF0C3EC6AF0000E0DEC6BEE
:10D96B00F0C3EC6AF0010E0DEC6BF0C3EC6AF00047
:10D97B000E0DEC6BF0D5EC6AF0010E0DEC6BF0D5E7
:10D98B00EC6AF0000E0DEC6BF0D5EC6AF0010E0DAD
:10D99B00EC6BF0D5EC6AF0D5EC6AF0D5EC6AF012D2
:10D9AB0000096E010E0A6E000E0B6EFBEF6CF0079A
:10D9BB00C001F008C002F02EEC6AF00A6E0A50D8D3
:10D9CB00A4EAEF6CF0ECEF6CF0EEEF6CF004EF6DA3
:10D9DB00F00B500524D96E000E0620DA6EDF5001D5
:10D9EB006E09500B2488EC6BF00B2A04500B5CD89F
:10D9FB00A002EF6DF004EF6DF0DDEF6CF00A50124A
:10DA0B0000000E066E000E056E03500410D8B41104
:10DA1B00EF6DF013EF6DF03BEF6DF0010E076E1B2A
:10DA2B00EF6DF0D89003360436072A04AE20EF6D65
:10DA3B00F022EF6DF017EF6DF0D890053606360338
:10DA4B0050015C04500258D8A02EEF6DF030EF6DF2
:10DA5B00F035EF6DF00350015E0450025A0580D88B
:10DA6B009004320332072E22EF6DF005C001F00651
:10DA7B00C002F012007AEC6DF00009D8B448EF6DDB
:10DA8B00F04AEF6DF079EF6DF056EC6AF00009D8C3
:10DA9B00A452EF6DF054EF6DF079EF6DF00001844F
:10DAAB0051D8B45BEF6DF05DEF6DF06CEF6DF00086
:10DABB000E19EC6AF0000E026E640E016E05EC6C32
:10DACB00F0010E19EC6AF0000E0001846F61EC6A34
:10DADB00F00009D8A474EF6DF076EF6DF079EF6D6F
:10DAEB00F0040E0001606F1200180E0E6E000E0F88
:10DAFB006E1A0E106E000E116E89EC6FF0420E183E
:10DB0B005C020E1958D8B08DEF6DF08FEF6DF0B33E
:10DB1B00EF6DF0C30E185C010E1958D8A098EF6D7D
:10DB2B00F09AEF6DF0B3EF6DF0420E1A5C020E1B24
:10DB3B0058D8B0A3EF6DF0A5EF6DF0B3EF6DF0C358
:10DB4B000E1A5C010E1B58D8A0AEEF6DF0B0EF6D46
:10DB5B00F0B3EF6DF0010EB4EF6DF0000E12000498
:10DB6B006ED4EF6DF004B002D0869601D08686F1AC
:10DB7B00EF6DF004B002D0859401D08584F1EF6D88
:10DB8B00F004B002D0879201D08782F1EF6DF004E0
:10DB9B00B002D0859201D08582F1EF6DF001500279
:10DBAB006E036A0350000AD8B4DEEF6DF0F1EF6D2F
:10DBBB00F00250010AD8B4B8EF6DF0030AD8B4BF25
:10DBCB00EF6DF0010AD8B4C6EF6DF0070AD8B4CDEB
:10DBDB00EF6DF0F1EF6DF01200046E1CEF6EF001C3
:10DBEB0050D8B4FBEF6DF0FFEF6DF0026A022A0024
:10DBFB00EF6EF0026A023A86500218EF0B0218869B
:10DC0B006E31EF6EF00150D8B40EEF6EF012EF6E76
:10DC1B00F0026A022A13EF6EF0026A0232023286B7
:10DC2B005002187F0B0218866E31EF6EF004500213
:10DC3B006E036A0350000AD8B426EF6EF031EF6E14
:10DC4B00F00250000AD8B4F5EF6DF0010AD8B40811
:10DC5B00EF6EF031EF6EF012007AEC6DF00009D838
:10DC6B00B43AEF6EF03CEF6EF071EF6EF01C0E0EEF
:10DC7B006E000E0F6E1E0E106E000E116E89EC6F85
:10DC8B00F01CC064F01DC065F01CC066F01DC067C1
:10DC9B00F0C00E1C240001686FFF0E1D20696F4041
:10DCAB000E1C246A6F000E1D206B6F1EC074F01FBC
:10DCBB00C075F01EC076F01FC077F0C00E1E247822
:10DCCB006FFF0E1F20796F400E1E247A6F000E1F00
:10DCDB00207B6F030E606F1200046E9DEF6EF001E0
:10DCEB0050D8A47BEF6EF07FEF6EF0026A022A80B1
:10DCFB00EF6EF0026A023A0246024686500218BFE5
:10DD0B000B0218866EB2EF6EF00150D8A490EF6E36
:10DD1B00F094EF6EF0026A022A95EF6EF0026A023F
:10DD2B004686500218FD0B0218866EB2EF6EF00499
:10DD3B0050026E036A0350000AD8B4A7EF6EF0B21C
:10DD4B00EF6EF00250000AD8B475EF6EF0010AD8EE
:10DD5B00B48AEF6EF0B2EF6EF01200046EDEEF6E6F
:10DD6B00F00150D8A4BCEF6EF0C0EF6EF0026A0267
:10DD7B002AC1EF6EF0026A023A024686500218DFA1
:10DD8B000B0218866EF3EF6EF00150D8A4D0EF6E35
:10DD9B00F0D4EF6EF0026A022AD5EF6EF0026A023F
:10DDAB0046024686500218FB0B0218866EF3EF6E86
:10DDBB00F00450026E036A0350000AD8B4E8EF6E09
:10DDCB00F0F3EF6EF00250000AD8B4B6EF6EF0012C
:10DDDB000AD8B4CAEF6EF0F3EF6EF01200015002E6
:10DDEB0010D8A4FBEF6EF0FDEF6EF0FFEF6EF03688
:10DDFB00EF6FF00204D8B005EF6FF007EF6FF0177D
:10DE0B00EF6FF0000E096E0CEF6FF0092A0150094D
:10DE1B005CD8A013EF6FF015EF6FF00BEF6FF036D0
:10DE2B00EF6FF0000E086E000E076E1FEF6FF0071E
:10DE3B004A082AE00E036EFF0E046E01C005F002C5
:10DE4B00C006F003500526045006220550075C0659
:10DE5B00500858D8A034EF6FF036EF6FF01DEF6F0E
:10DE6B00F0120089840F0119951885000E5D6E8ED6
:10DE7B00B442EF6FF045EF6FF0010E46EF6FF0001D
:10DE8B000E5C6E898019911881000E0001636F8EF4
:10DE9B00B052EF6FF055EF6FF0010E56EF6FF000D1
:10DEAB000E596E89820F0119931883898A199B1851
:10DEBB008B898C199D188D000E0001626F8EBC69C9
:10DECB00EF6FF06CEF6FF0010E6DEF6FF0000E580F
:10DEDB006E8EAC73EF6FF076EF6FF0010E77EF6F26
:10DEEB00F0000E616F898E0F01199F188F8EBE8106
:10DEFB00EF6FF084EF6FF0010E85EF6FF0000E5AAD
:10DF0B006E000E5B6E1200000E136E000E126E0092
:10DF1B000E156E000E146E000E176E000E166E00B0
:10DF2B000E026E020E016EF4EC6EF03AEC6BF00A20
:10DF3B005012260B5013226DEC6BF00A5014260B6B
:10DF4B00501522164A172A17BEB5EF6FF017500956
:10DF5B00E10A0E165CD8A0B5EF6FF0B7EF6FF09536
:10DF6B00EF6FF012C001F013C002F0000E046E0A46
:10DF7B000E036E06EC6DF00EC0D9FF0FC0DAFF0179
:10DF8B00C0DEFF02C0DDFF14C001F015C002F000BF
:10DF9B000E046E0A0E036E06EC6DF010C0D9FF1165
:10DFAB00C0DAFF01C0DEFF02C0DDFF12000DC011A1
:10DFBB00F00EC012F0750E115C090E1258D8A0E9C4
:10DFCB00EF6FF0EBEF6FF0EFEF6FF0090E126E7477
:10DFDB000E116E400E115C060E1258D8B0F8EF6F92
:10DFEB00F0FAEF6FF0FEEF6FF0060E126E400E11AF
:10DFFB006E0FC013F010C014F0750E135C090E14E5
:10E00B0058D8A00BEF70F00DEF70F011EF70F00916
:10E01B000E146E740E136E400E135C060E1458D84D
:10E02B00B01AEF70F01CEF70F020EF70F0060E14CA
:10E03B006E400E136E11C005F012C006F0000E2FCD
:10E04B00EC70F013C005F014C006F0010E2FEC704D
:10E05B00F012000C6E000E016E0C5072EC6EF000A4
:10E06B000E0B6E000E0A6E0A500B08076E010E089F
:10E07B006E000E096E072A46EF70F0D8900836092D
:10E08B0036072E43EF70F005500816065009160898
:10E09B00500910D8A454EF70F057EF70F0010E58E0
:10E0AB00EF70F0000E016E0C50B3EC6EF0010E0130
:10E0BB006E0C5072EC6EF00B0E0A180B10D8A46994
:10E0CB00EF70F06BEF70F070EF70F0010E016E0CF3
:10E0DB0050F2EC6DF0000E016E0C5072EC6EF00A0B
:10E0EB004A0B2A0B5009E10C0E0A5CD8A080EF708A
:10E0FB00F082EF70F039EF70F0000E016E0C50F201
:10E10B00EC6DF0010E016E0C5072EC6EF012000310
:10E11B003404340A6E0A50D8A496EF70F098EF705E
:10E12B00F0A2EF70F0000E016E000E026E000E03F7
:10E13B006E000E046E0FEF71F001C005F002C00609
:10E14B00F003C007F004C008F0200EB2EF70F0D857
:10E15B00900832073206320532E82EADEF70F0052B
:10E16B0050096E038EFF0E0116FF0E0216FF0E03F3
:10E17B0016000E0416960E0A5E0ABEC9EF70F0C7A3
:10E18B00EF70F0DFEF70F00A50800A970FD8B0D124
:10E19B00EF70F0D3EF70F0D5EF70F098EF70F0D820
:10E1AB009004320332023201320A3ED5EF70F0F79F
:10E1BB00EF70F01F0E0A64E5EF70F0E7EF70F0EF11
:10E1CB00EF70F098EF70F0D89001360236033604FA
:10E1DB00360A060A50D8A4F5EF70F0F7EF70F0E9A5
:10E1EB00EF70F00950D8B4FDEF70F0FFEF70F0074F
:10E1FB00EF71F0041E031E021E016C000E022203BF
:10E20B0022042201C001F002C002F003C003F0049B
:10E21B00C004F01200000E1E6E37EC6AF00009D835
:10E22B00B41AEF71F01CEF71F08BEF71F0210E0E41
:10E23B006E000E0F6E1F0E106E000E116E89EC6FBE
:10E24B00F0800E186EFF0E196E20EE76F0DECF1AF0
:10E25B00F0DDCF1BF018501A2619501B221F501A35
:10E26B005C20501B58D8B03DEF71F03FEF71F08B35
:10E27B00EF71F0800E00017625186E000E772119D4
:10E28B006E18501F5C19502058D8B04FEF71F051D9
:10E29B00EF71F08BEF71F06851215C69512258D806
:10E2AB00B05AEF71F05CEF71F08BEF71F072516659
:10E2BB005D186E73516759196E1850215C195022F5
:10E2CB0058D8B06BEF71F06DEF71F073EF71F072B6
:10E2DB0051665D216E73516759226E2150665D1C2C
:10E2EB006E225067591D6ED8907331196E723118AA
:10E2FB006E1C50185C1D501958D8B087EF71F089FF
:10E30B00EF71F08BEF71F0010E1E6E1E50D8B491B1
:10E31B00EF71F093EF71F096EF71F0010EA0EF71CA
:10E32B00F05950D8B49CEF71F09FEF71F0010EA033
:10E33B00EF71F0000E12008EB4A6EF71F0A9EF7121
:10E34B00F0010EAAEF71F0000E5C18D8A4B0EF71BB
:10E35B00F0B2EF71F0B6EF71F0000E5D6ECBEF71B6
:10E36B00F05D2A080E5D64BDEF71F0BFEF71F0CB6D
:10E37B00EF71F08EB4C4EF71F0C7EF71F0010EC8FE
:10E38B00EF71F0000E5C6E000E5D6E41EC6AF000FA
:10E39B0009D8A4D3EF71F0D5EF71F003EF72F08EC3
:10E3AB00B0DAEF71F0DDEF71F0010EDEEF71F0001E
:10E3BB000E5918D8A4E4EF71F0E6EF71F0EBEF71A2
:10E3CB00F0000E0001636F05EF72F00001632B0884
:10E3DB000E6365F3EF71F0F5EF71F005EF72F08EF0
:10E3EB00B0FAEF71F0FDEF71F0010EFEEF71F0007E
:10E3FB000E596E000E636F05EF72F0010E596E8EA3
:10E40B00BE0AEF72F00DEF72F0010E0EEF72F0001C
:10E41B000E5A18D8A414EF72F016EF72F01AEF72AE
:10E42B00F0000E5B6E2FEF72F05B2A080E5B64211F
:10E43B00EF72F023EF72F02FEF72F08EBE28EF72B7
:10E44B00F02BEF72F0010E2CEF72F0000E5A6E00F3
:10E45B000E5B6E8EBC34EF72F037EF72F0010E383C
:10E46B00EF72F0000E5818D8A43EEF72F040EF7226
:10E47B00F045EF72F0000E0001626F5BEF72F0007F
:10E48B0001622B080E62654DEF72F04FEF72F05B7D
:10E49B00EF72F08EBC54EF72F057EF72F0010E5822
:10E4AB00EF72F0000E586E000E626F120056EC6A9F
:10E4BB00F00009D8B464EF72F066EF72F06BEF7294
:10E4CB00F02AEC6CF0020E0001606F23EC6BF00095
:10E4DB0009D8B473EF72F075EF72F07AEF72F00047
:10E4EB000E06EC6AF07DEF72F0010E06EC6AF01C82
:10E4FB000E0E6E000E0F6E1E0E106E000E116E893C
:10E50B00EC6FF0D89000017131196E7031186E6696
:10E51B00511826675119221C50185C1D501958D8D8
:10E52B00B09AEF72F09CEF72F0A3EF72F0010E0154
:10E53B006E000EB5EC6DF0A8EF72F0010E016E01DE
:10E54B000EB5EC6DF0D89000017331196E72311865
:10E55B006E20EE66F0DECF1AF0DDCF1BF018501AEE
:10E56B005E19501B5A1A501C5C1B501D58D8B0C159
:10E57B00EF72F0C3EF72F0CAEF72F0020E016E0091
:10E58B000EB5EC6DF0CFEF72F0020E016E010EB511
:10E59B00EC6DF0D89000018131196E8031186E76D8
:10E5AB00511826775119221E50185C1F501958D834
:10E5BB00B0E2EF72F0E4EF72F0EBEF72F0040E01E9
:10E5CB006E000EB5EC6DF0F0EF72F0040E016E0103
:10E5DB000EB5EC6DF0D89000018331196E823118B5
:10E5EB006E20EE76F0DECF1AF0DDCF1BF018501A4E
:10E5FB005E19501B5A1A501E5C1B501F58D8B0097D
:10E60B00EF73F00BEF73F012EF73F0030E016E006C
:10E61B000EB5EC6DF017EF73F0030E016E010EB536
:10E62B00EC6DF01200180E0E6E000E0F6E1A0E101F
:10E63B006E000E116E89EC6FF0185000016E5D19B3
:10E64B00506F59D8B02CEF73F02EEF73F032EF738D
:10E65B00F018C06EF019C06FF06C51185C6D511949
:10E66B0058D8B03BEF73F03DEF73F041EF73F018F8
:10E67B00C06CF019C06DF01A507E5D1B507F59D8DD
:10E68B00B04AEF73F04CEF73F050EF73F01AC07E9B
:10E69B00F01BC07FF07C511A5C7D511B58D8B059D0
:10E6AB00EF73F05BEF73F05FEF73F01AC07CF01B4E
:10E6BB00C07DF061EC6AF00009D8B467EF73F069C4
:10E6CB00EF73F0EBEF73F0000166516E5D706F67E7
:10E6DB00516F59716F715109E1DD0E705DD8A079E1
:10E6EB00EF73F07BEF73F07FEF73F0000E716FDC65
:10E6FB000E706F6C51665D726F6D516759736F73EE
:10E70B005109E1DD0E725DD8A08EEF73F090EF73BF
:10E71B00F094EF73F0000E736FDC0E726F76517E18
:10E72B005D806F77517F59816F815109E1DD0E80DB
:10E73B005DD8A0A3EF73F0A5EF73F0A9EF73F00012
:10E74B000E816FDC0E806F7C51765D826F7D517711
:10E75B0059836F835109E1DD0E825DD8A0B8EF7349
:10E76B00F0BAEF73F0BEEF73F0000E836FDC0E8226
:10E77B006F72C00CF073C00DF0000EE7EC6AF07016
:10E78B00C00CF071C00DF0020EE7EC6AF082C00C09
:10E79B00F083C00DF0040EE7EC6AF080C00CF08142
:10E7AB00C00DF0060EE7EC6AF0DE0E0D6EAD0E0C32
:10E7BB006E080EE7EC6AF0AA0E0D6E550E0C6E0A83
:10E7CB000EE7EC6AF00E0E0001606F1200096E0985
:10E7DB0050D8B4F3EF73F0F5EF73F017EF74F00458
:10E7EB00BEFCEF73F0FAEF73F017EF74F001C00596
:10E7FB00F002C006F003C007F004C008F0051E06C7
:10E80B001E071E081E052A000E06220722082205D7
:10E81B00C00BF006C00CF007C00DF008C00EF01FC7
:10E82B00EF74F001C00BF002C00CF003C00DF0044C
:10E83B00C00EF00150021003100410D8A428EF747E
:10E84B00F02AEF74F034EF74F0000E016E000E023C
:10E85B006E000E036E000E046EC5EF74F0960E0A7A
:10E86B006E3EEF74F00A2AD8900E320D320C320B3A
:10E87B0032000E0B14056E000E0C14066E000E0DFE
:10E88B0014076EFE0E0E14086E05500610071008C6
:10E89B0010D8A453EF74F055EF74F038EF74F063A5
:10E8AB00EF74F00A2A010E0B26000E0C220D220E1D
:10E8BB0022D8900E320D320C320B32000E0B140597
:10E8CB006E000E0C14066E000E0D14076EFF0E0E6E
:10E8DB0014086E0550061007100810D8A478EF74B2
:10E8EB00F07AEF74F057EF74F082EF74F00A06D8F9
:10E8FB00900B360C360D360E360DBE87EF74F08945
:10E90B00EF74F091EF74F0020E0A608FEF74F091D8
:10E91B00EF74F07CEF74F00AB096EF74F098EF742C
:10E92B00F099EF74F00D9ED8900A320AC005F006EC
:10E93B006A076A086A05C008F0076A066A056A056D
:10E94B00500B1206500C1207500D1208500E1209E4
:10E95B0050D8B4B3EF74F0B5EF74F0BDEF74F004AE
:10E96B00BEBCEF74F0BAEF74F0BDEF74F00E8E0B0B
:10E97B00C001F00CC002F00DC003F00EC004F01289
:10E98B0000010E0D6E020E0001656F020E646F0228
:10E99B000E676F020E666F010E696FC20E686F0213
:10E9AB000E6B6F420E6A6F010E6D6F260E6C6F024F
:10E9BB000E6F6FDE0E6E6F000E716FDC0E706F00E0
:10E9CB000E736FDC0E726F020E756F020E746F0298
:10E9DB000E776F020E766F010E796FC20E786F0293
:10E9EB000E7B6F420E7A6F010E7D6F260E7C6F02CF
:10E9FB000E7F6FDE0E7E6F000E816FDC0E806F0060
:10EA0B000E836FDC0E826F090E066E000E076E080A
:10EA1B000E6CEC6AF00B0E066E000E076E0A0E6C97
:10EA2B00EC6AF0AD0E091807E1DE0E0A18D8A42126
:10EA3B00EF75F023EF75F02FEF75F0550E0B1809EE
:10EA4B00E1AA0E0C18D8B42DEF75F02FEF75F0323C
:10EA5B00EF75F0000EC0EF75F0720E066E000E072C
:10EA6B006E000E6CEC6AF0700E066E000E076E02F6
:10EA7B000E6CEC6AF0820E066E000E076E040E6CC6
:10EA8B00EC6AF0800E066E000E076E060E6CEC6ADA
:10EA9B00F00001715107E1DD0E705DD8B058EF75D4
:10EAAB00F05AEF75F065EF75F0715107E11B0E70C1
:10EABB005DD8B063EF75F065EF75F06BEF75F00037
:10EACB000E0D6E000E716FDC0E706F735107E1DD72
:10EADB000E725DD8B074EF75F076EF75F081EF754F
:10EAEB00F0735107E11B0E725DD8B07FEF75F081AB
:10EAFB00EF75F087EF75F0000E0D6E000E736FDC87
:10EB0B000E726F815107E1DD0E805DD8B090EF750D
:10EB1B00F092EF75F09DEF75F0815107E11B0E80C0
:10EB2B005DD8B09BEF75F09DEF75F0A3EF75F0001E
:10EB3B000E0D6E000E816FDC0E806F835107E1DDD1
:10EB4B000E825DD8B0ACEF75F0AEEF75F0B9EF7526
:10EB5B00F0835107E11B0E825DD8B0B7EF75F0B9AA
:10EB6B00EF75F0BFEF75F0000E0D6E000E836FDCCE
:10EB7B000E826F0D50120014EC6AF00FEC6AF00865
:10EB8B00EC6AF07DEC6CF007EC6AF04BEC6AF0A3EE
:10EB9B00EC6BF037EC6FF0070E066EDA0E056E00BD
:10EBAB000E2FEC70F0070E066EDA0E056E010E2FAF
:10EBBB00EC70F0000E576E000E566E000E026E9249
:10EBCB000E016EF4EC6EF0564A572A57BEF7EF75EE
:10EBDB00F0D00E565C070E5758D8A0F7EF75F0F92A
:10EBEB00EF75F0E3EF75F0C6EC74F0556E5550D839
:10EBFB00A402EF76F004EF76F03DEF76F0000E57BF
:10EC0B006E000E566EA1EC71F0000E026E920E01AC
:10EC1B006EF4EC6EF0564A572A57BE1EEF76F0573D
:10EC2B005009E1960E565CD8A01EEF76F020EF76D9
:10EC3B00F008EF76F0010E19EC6AF0000E576E003B
:10EC4B000E566E000E026E920E016EF4EC6EF056C6
:10EC5B004A572A57BE3BEF76F0575009E1960E56AE
:10EC6B005CD8A03BEF76F03DEF76F027EF76F00027
:10EC7B000E576E000E566EA1EC71F0000E026E92E6
:10EC8B000E016EF4EC6EF0564A572A57BE57EF76CC
:10EC9B00F0575009E1960E565CD8A057EF76F05915
:10ECAB00EF76F041EF76F0010E19EC6AF0070E06E5
:10ECBB006EDA0E056E000E2FEC70F0070E066EDA94
:10ECCB000E056E010E2FEC70F0010E0001606FA1AE
:10ECDB00EC71F0A5EF76F032EC6EF0E7EF76F077B3
:10ECEB00EC6AF0E7EF76F040EC6DF0E7EF76F0339F
:10ECFB00EC7DF0E7EF76F092EC6AF0E7EF76F084DC
:10ED0B00EC6AF0E7EF76F05CEC72F0E7EF76F02769
:10ED1B00EC6AF0E7EF76F0B2EC6AF0E7EF76F00B27
:10ED2B00EC6AF0E7EF76F052EC6CF0E7EF76F01868
:10ED3B00EC73F0E7EF76F0A1EC6AF0E7EF76F0001A
:10ED4B00016051536E546A5450000AD8B4B0EF7638
:10ED5B00F0E7EF76F05350010AD8B471EF76F00379
:10ED6B000AD8B475EF76F0010AD8B479EF76F007CC
:10ED7B000AD8B47DEF76F0010AD8B481EF76F003B0
:10ED8B000AD8B485EF76F0010AD8B489EF76F00E85
:10ED9B000AD8B48DEF76F0030AD8B491EF76F00170
:10EDAB000AD8B495EF76F0070AD8B499EF76F0014C
:10EDBB000AD8B49DEF76F0030AD8B4A1EF76F0E74A
:10EDCB00EF76F0000E026E350E016EF4EC6EF06D08
:10EDDB00EF76F000EF00F01250800B1F6E12501206
:10EDEB0024266E11AEFCEF76F0FEEF76F0FFEF7699
:10EDFB00F026802650D8B405EF77F007EF77F01C9C
:10EE0B00EF77F02628D8A40DEF77F00FEF77F017F8
:10EE1B00EF77F0000E0F6E000E106E000E116E00ED
:10EE2B000E126E118E000E126E24EF77F0000E0F85
:10EE3B006E000E106E000E116E000E126E165080CC
:10EE4B000B1F1A16501624276E15AE2FEF77F031C5
:10EE5B00EF77F032EF77F027802750D8B438EF7781
:10EE6B00F03AEF77F04FEF77F02728D8A440EF7701
:10EE7B00F042EF77F04AEF77F0000E136E000E14AE
:10EE8B006E000E156E000E166E158E000E166E575A
:10EE9B00EF77F0000E136E000E146E000E156E0061
:10EEAB000E166E1350141015101610D8A460EF77B1
:10EEBB00F062EF77F07AEF77F0000E0F6E000E1026
:10EECB006E000E116E000E126E800E11127F0E125E
:10EEDB00121F5012120FC00FF010C010F011C01102
:10EEEB00F012C012F0BDEF78F02650D8A480EF7767
:10EEFB00F082EF77F08CEF77F0000E0F6E000E10B4
:10EF0B006E000E116E000E126EBDEF78F0275026BC
:10EF1B00C017F0186A175E000E185A7F0E172420C0
:10EF2B006E000E1820216E0FC01BF010C01CF011CC
:10EF3B00C01DF012C01EF0000E0F6E000E106E0002
:10EF4B000E116E000E126E000E226E000E236E005E
:10EF5B000E246E000E256E000E276EEDEF77F02758
:10EF6B0050D8B4BBEF77F0BDEF77F0D4EF77F0D894
:10EF7B00901B361C361D361E36D8900F36103611A8
:10EF8B0036123625AECCEF77F0CEEF77F0CFEF77AA
:10EF9B00F00F80D890223623362436253613501B9B
:10EFAB005C14501C5815501D5816501E58D8A0E113
:10EFBB00EF77F0E3EF77F0ECEF77F0258C13501B46
:10EFCB005E14501C5A15501D5A16501E5A272A19DA
:10EFDB000E2764F3EF77F0F5EF77F0B5EF77F01BD3
:10EFEB00501C101D101E10D8B4FEEF77F000EF78F8
:10EFFB00F018EF78F0228018EF78F0D8900F3610D9
:10F00B00361136123625AE0DEF78F00FEF78F01083
:10F01B00EF78F00F80D89022362336243625362011
:10F02B0006D8A0210611AE1DEF78F01FEF78F00384
:10F03B00EF78F0000E276E25AE26EF78F028EF78EC
:10F04B00F04CEF78F0FF0E2214176EFF0E231418FE
:10F05B006EFF0E2414196E7F0E25141A6E1750189E
:10F06B001019101A10D8B43DEF78F03FEF78F04339
:10F07B00EF78F0010E276E4CEF78F00FA048EF7889
:10F08B00F04AEF78F04CEF78F03FEF78F02750D85C
:10F09B00B452EF78F054EF78F078EF78F0010E0F70
:10F0AB0026000E10221122122212A05FEF78F061BF
:10F0BB00EF78F078EF78F00FC017F010C018F01160
:10F0CB00C019F012C01AF01A341A3219321832174A
:10F0DB003217C00FF018C010F019C011F01AC0127F
:10F0EB00F0204A212A21BE83EF78F0215008E1203D
:10F0FB0028D8A083EF78F085EF78F090EF78F000C8
:10F10B000E216E2068000E0F6E000E106E000E1199
:10F11B006E000E126E21BE9DEF78F0215006E1209D
:10F12B0004D8B09BEF78F09DEF78F0ABEF78F00060
:10F13B000E216E000E206E000E0F6E000E106E0074
:10F14B000E116E000E126E000E1F6E20C026F026E2
:10F15B00A0B2EF78F0B4EF78F0B7EF78F0118EB88B
:10F16B00EF78F0119ED8902630126E6EEF77F0127A
:10F17B00002B50800B346E2B502B243A6E2AAEC9C9
:10F18B00EF78F0CBEF78F0CCEF78F03A803A50D8BC
:10F19B00B4D2EF78F0D4EF78F0E7EF78F03A28D8E4
:10F1AB00A4DAEF78F0DCEF78F0E4EF78F0000E28DB
:10F1BB006E000E296E000E2A6E000E2B6E2A8EEF3D
:10F1CB00EF78F0000E286E000E296E000E2A6E00EE
:10F1DB000E2B6E2F50800B341A2F502F24396E2E7E
:10F1EB00AEFAEF78F0FCEF78F0FDEF78F03980397C
:10F1FB0050D8B403EF79F005EF79F018EF79F039C7
:10F20B0028D8A40BEF79F00DEF79F015EF79F0001A
:10F21B000E2C6E000E2D6E000E2E6E000E2F6E2E0F
:10F22B008E20EF79F0000E2C6E000E2D6E000E2E40
:10F23B006E000E2F6E3950D8B426EF79F028EF7987
:10F24B00F030EF79F03A50D8A42EEF79F030EF7917
:10F25B00F03AEF79F0000E286E000E296E000E2AA0
:10F26B006E000E2B6ED2EF7AF02E502802F3CF3FAA
:10F27B00F0F4CF40F03F50356E366A376A386A404B
:10F28B00503B6E3C6A3D6A3E6A2D502902F3CF3FDC
:10F29B00F0F4CF40F03F503526000E36223722389F
:10F2AB002240503B26000E3C223D223E222C502A6F
:10F2BB0002F3CF3FF0F4CF40F03F503526000E362F
:10F2CB00223722382240503B26000E3C223D223E64
:10F2DB002237C038F036C037F035C036F0356A2CDF
:10F2EB00502902F3CF3FF0F4CF40F03F503526408A
:10F2FB00503622000E3722000E38222D502802F3F2
:10F30B00CF3FF0F4CF40F03F50352640503622002F
:10F31B000E3722000E382237C038F036C037F035A2
:10F32B00C036F0356A2C502802F3CF3FF0F4CF40B3
:10F33B00F03F50352640503622000E3722000E3853
:10F34B00222E502902F3CF3FF0F4CF40F03F503B39
:10F35B002640503C22000E3D22000E3E222D502A0C
:10F36B0002F3CF3FF0F4CF40F03F503B2640503CF0
:10F37B0022000E3D22000E3E222E502A02F3CF3FDA
:10F38B00F0F4CF40F03F50306E4050316E326A3364
:10F39B006A32C033F031C032F030C031F0306A30F5
:10F3AB00503B2631503C2232503D2233503E2235C9
:10F3BB00C030F036C031F037C032F038C033F019FE
:10F3CB000EEDEF79F0D8903332323231323032E801
:10F3DB002EE8EF79F030503B2631503C2232503D35
:10F3EB002233503E2237C038F036C037F035C036A6
:10F3FB00F0356A39503AC030F0316A3026000E31A0
:10F40B0022820E30243F6EFF0E3120406E23EF7AA6
:10F41B00F0D8903B363C363D363E3638AE18EF7A58
:10F42B00F01AEF7AF01BEF7AF03B80D89035363636
:10F43B0036373638363F06D8A040063DAE28EF7A31
:10F44B00F02AEF7AF00EEF7AF0000E396E38AE310B
:10F45B00EF7AF033EF7AF057EF7AF0FF0E35143086
:10F46B006EFF0E3614316EFF0E3714326E7F0E3870
:10F47B0014336E3050311032103310D8B448EF7A49
:10F48B00F04AEF7AF04EEF7AF0010E396E57EF7AC1
:10F49B00F03BA053EF7AF055EF7AF057EF7AF04A42
:10F4AB00EF7AF03950D8B45DEF7AF05FEF7AF083F2
:10F4BB00EF7AF0010E3B26000E3C223D223E223E0F
:10F4CB00A06AEF7AF06CEF7AF083EF7AF03BC03002
:10F4DB00F03CC031F03DC032F03EC033F03334333A
:10F4EB003232323132303230C03BF031C03CF0324C
:10F4FB00C03DF033C03EF03F4A402A40BE8EEF7A0B
:10F50B00F0405008E13F28D8A08EEF7AF090EF7AC8
:10F51B00F09AEF7AF0000E3B6E000E3C6E800E3DC3
:10F52B006E7F0E3E6EC8EF7AF040BEA7EF7AF040CA
:10F53B005006E13F04D8B0A5EF7AF0A7EF7AF0B30D
:10F54B00EF7AF0000E3B6E000E3C6E000E3D6E002F
:10F55B000E3E6E000E346EC8EF7AF03FC03AF0FFED
:10F56B000E3B16FF0E3C167F0E3D16000E3E163A56
:10F57B00A0C2EF7AF0C4EF7AF0C5EF7AF03D8ED8E7
:10F58B00903A303E6E34503E123BC028F03CC029BE
:10F59B00F03DC02AF03EC02BF012000450800B0D42
:10F5AB006E045004240F6E03AEDEEF7AF0E0EF7AB8
:10F5BB00F0E1EF7AF00F800F50D8B4E7EF7AF0E973
:10F5CB00EF7AF0FEEF7AF00F28D8A4EFEF7AF0F194
:10F5DB00EF7AF0F9EF7AF0000E016E000E026E007A
:10F5EB000E036E000E046E038E000E046E06EF7B90
:10F5FB00F0000E016E000E026E000E036E000E0484
:10F60B006E0850800B0E6E0D500E18D8B410EF7B99
:10F61B00F012EF7BF013EF7BF00D8C085008240EEB
:10F62B006E07AE1BEF7BF01DEF7BF01EEF7BF00E3A
:10F63B00800E50D8B424EF7BF026EF7BF03BEF7BB2
:10F64B00F00E28D8A42CEF7BF02EEF7BF036EF7B5F
:10F65B00F0000E056E000E066E000E076E000E0813
:10F66B006E078E000E086E43EF7BF0000E056E00EA
:10F67B000E066E000E076E000E086E0F500E5CD855
:10F68B00B04AEF7BF04CEF7BF073EF7BF00DAC519E
:10F69B00EF7BF053EF7BF055EF7BF0800E0D1A0FE5
:10F6AB00C010F00EC00FF010C00EF001C010F0052E
:10F6BB00C001F010C005F002C010F006C002F0103F
:10F6CB00C006F003C010F007C003F010C007F00431
:10F6DB00C010F008C004F010C008F0000E106E0F40
:10F6EB00500EC009F00A6A095E000E0A5A0ABE885B
:10F6FB00EF7BF00A5009E11A0E095CD8A088EF7B6A
:10F70B00F08AEF7BF0C1EF7BF00150021003100485
:10F71B0010D8A493EF7BF096EF7BF0010E97EF7B65
:10F72B00F0000E106E000E016E000E026E000E0346
:10F73B006E000E046E0EC00FF0CAEF7BF010A0A986
:10F74B00EF7BF0ABEF7BF0B1EF7BF0D8901030019B
:10F75B0009106EB3EF7BF0D890103201A0B8EF7B9D
:10F76B00F0BAEF7BF0BBEF7BF0108E043404320366
:10F77B0032023201320F2A0E500F5CD8A0C8EF7B39
:10F78B00F0CAEF7BF0A4EF7BF00DBCCFEF7BF0D199
:10F79B00EF7BF011EF7CF00F50D8A4D7EF7BF0D9B3
:10F7AB00EF7BF0E3EF7BF0000E016E000E026E00BC
:10F7BB000E036E000E046E32EF7DF005500126062F
:10F7CB00500222075003220850042204A0F0EF7BC2
:10F7DB00F0F2EF7BF09EEF7CF010A0F7EF7BF0F9EF
:10F7EB00EF7BF0FFEF7BF0D89010300109106E012A
:10F7FB00EF7CF0D890103201A006EF7CF008EF7C84
:10F80B00F009EF7CF0108E04340432033202320123
:10F81B00320F2A9EEF7CF00550015C065002580710
:10F82B005003580450800A096E0850800A0958D8B2
:10F83B00B022EF7CF024EF7CF04FEF7CF001500511
:10F84B005C096E025006580A6E035007580B6E0483
:10F85B005008580C6EFF0E0924016EFF0E0A200291
:10F86B006EFF0E0B20036EFF0E0C20046E800E0D30
:10F87B001A106C1050D8A445EF7CF047EF7CF05772
:10F88B00EF7CF0010E0126000E0222032204225708
:10F89B00EF7CF00550015E0650025A0750035A08E0
:10F8AB0050045A0150021003100410D8A460EF7CCE
:10F8BB00F062EF7CF097EF7CF01050D8A468EF7CEF
:10F8CB00F06AEF7CF097EF7CF0000E016E000E02F9
:10F8DB006E000E036E000E046E32EF7DF0D89001B9
:10F8EB003602360336043610AE7EEF7CF080EF7CAA
:10F8FB00F081EF7CF0018010A086EF7CF088EF7C2C
:10F90B00F08CEF7CF0D88010368EEF7CF0D8901016
:10F91B00360F50D8B494EF7CF096EF7CF097EF7CD9
:10F92B00F00F0603AE9CEF7CF09EEF7CF074EF7C47
:10F93B00F0000E0E6E10AEA5EF7CF0A7EF7CF0BFC3
:10F94B00EF7CF010C009F07F0E0916D8B4B0EF7C35
:10F95B00F0B2EF7CF0B6EF7CF0010E0E6EBFEF7CD9
:10F96B00F001A0BBEF7CF0BDEF7CF0BFEF7CF0B201
:10F97B00EF7CF00E50D8B4C5EF7CF0C7EF7CF0F203
:10F98B00EF7CF0010E0126000E022203220422045A
:10F99B00A0D2EF7CF0D4EF7CF0F2EF7CF001C00949
:10F9AB00F002C00AF003C00BF004C00CF00C340CD6
:10F9BB00320B320A32093209C001F00AC002F00BD5
:10F9CB00C003F00CC004F00F28D8B4EFEF7CF0F1BB
:10F9DB00EF7CF0F2EF7CF00F2A0F28D8B4F8EF7C15
:10F9EB00F0FAEF7CF002EF7DF00F50D8A400EF7D22
:10F9FB00F002EF7DF014EF7DF0000E016E000E02B1
:10FA0B006E000E036E000E046E0F50D8A410EF7D27
:10FA1B00F012EF7DF014EF7DF0000E0D6E0FA019BC
:10FA2B00EF7DF01BEF7DF01EEF7DF0038E1FEF7D62
:10FA3B00F0039ED8900F30046E0DAE27EF7DF029AA
:10FA4B00EF7DF02AEF7DF0048E01C001F002C002C1
:10FA5B00F003C003F004C004F01200470E0E6E005A
:10FA6B000E0F6E490E106E000E116E89EC6FF007C3
:10FA7B000E446EDA0E436E070E466EDA0E456E4777
:10FA8B005000016A5D48506B59D8B04FEF7DF05173
:10FA9B00EF7DF0E6EF7DF066517025416E67517199
:10FAAB0021426E4750415C48504258D8B060EF7DC0
:10FABB00F062EF7DF068EF7DF066517025476E6761
:10FACB00517121486E000E4F6E400E506EFB0E5161
:10FADB006E440E526E6651475C416E6751485842F8
:10FAEB006E41C001F042C002F0036A046A000EECE2
:10FAFB00EC73F001C04BF002C04CF003C04DF004AE
:10FB0B00C04EF070C001F071C002F0036A046A00CD
:10FB1B000EECEC73F001C013F002C014F003C0152F
:10FB2B00F004C016F04BC00FF04CC010F04DC011DC
:10FB3B00F04EC012F0F1EC76F00FC028F010C02997
:10FB4B00F011C02AF012C02BF0000E2C6E800E2D7F
:10FB5B006E1D0E2E6E440E2F6EBEEC78F028C04B31
:10FB6B00F029C04CF02AC04DF02BC04EF04FC00115
:10FB7B00F050C002F051C003F052C004F04BC0056E
:10FB8B00F04CC006F04DC007F04EC008F0D3EC7A35
:10FB9B00F001C04FF002C050F003C051F004C0524E
:10FBAB00F04FC001F050C002F051C003F052C0043E
:10FBBB00F08DEC70F001C043F002C044F083EF7E97
:10FBCB00F06851475C69514858D8B0EFEF7DF0F1C0
:10FBDB00EF7DF083EF7EF037EC6AF00009D8A4F9E3
:10FBEB00EF7DF0FBEF7DF083EF7EF000017251664D
:10FBFB005D416E73516759426E4150475C425048AC
:10FC0B0058D8B00BEF7EF00DEF7EF013EF7EF07255
:10FC1B0051665D476E73516759486E000E4F6E40CB
:10FC2B000E506EFB0E516E440E526E4750665D4188
:10FC3B006E48506759426E41C001F042C002F0035A
:10FC4B006A046A000EECEC73F001C04BF002C04C7E
:10FC5B00F003C04DF004C04EF072C001F073C0024F
:10FC6B00F0036A046A000EECEC73F001C013F002AF
:10FC7B00C014F003C015F004C016F04BC00FF04CCD
:10FC8B00C010F04DC011F04EC012F0F1EC76F00F39
:10FC9B00C028F010C029F011C02AF012C02BF000C0
:10FCAB000E2C6E800E2D6E1D0E2E6E440E2F6EBE04
:10FCBB00EC78F028C04BF029C04CF02AC04DF02B4B
:10FCCB00C04EF04FC011F050C012F051C013F052A3
:10FCDB00C014F04BC015F04CC016F04DC017F04ED1
:10FCEB00C018F0E2EC6BF011C04FF012C050F013E3
:10FCFB00C051F014C052F0D6EF7DF0495000017A9C
:10FD0B005D4A507B59D8B08DEF7EF08FEF7EF0249B
:10FD1B00EF7FF076518025416E77518121426E49FC
:10FD2B0050415C4A504258D8B09EEF7EF0A0EF7E17
:10FD3B00F0A6EF7EF076518025496E775181214AEE
:10FD4B006E000E4F6E400E506EFB0E516E440E52F7
:10FD5B006E7651495C416E77514A58426E41C001F3
:10FD6B00F042C002F0036A046A000EECEC73F0017F
:10FD7B00C04BF002C04CF003C04DF004C04EF080FD
:10FD8B00C001F081C002F0036A046A000EECEC7350
:10FD9B00F001C013F002C014F003C015F004C0163C
:10FDAB00F04BC00FF04CC010F04DC011F04EC01214
:10FDBB00F0F1EC76F00FC028F010C029F011C02A3A
:10FDCB00F012C02BF0000E2C6E800E2D6E1D0E2E21
:10FDDB006E440E2F6EBEEC78F028C04BF029C04C51
:10FDEB00F02AC04DF02BC04EF04FC001F050C002B6
:10FDFB00F051C003F052C004F04BC005F04CC006EC
:10FE0B00F04DC007F04EC008F0D3EC7AF001C04FB4
:10FE1B00F002C050F003C051F004C052F04FC001CB
:10FE2B00F050C002F051C003F052C004F08DEC70E2
:10FE3B00F001C045F002C046F0B6EF7FF0785149B3
:10FE4B005C79514A58D8B02DEF7FF02FEF7FF0B689
:10FE5B00EF7FF08251765D416E83517759426E414F
:10FE6B0050495C42504A58D8B03EEF7FF040EF7F8C
:10FE7B00F046EF7FF08251765D496E835177594A98
:10FE8B006E000E4F6E400E506EFB0E516E440E52B6
:10FE9B006E4950765D416E4A507759426E41C001B2
:10FEAB00F042C002F0036A046A000EECEC73F0013E
:10FEBB00C04BF002C04CF003C04DF004C04EF082BA
:10FECB00C001F083C002F0036A046A000EECEC730D
:10FEDB00F001C013F002C014F003C015F004C016FB
:10FEEB00F04BC00FF04CC010F04DC011F04EC012D3
:10FEFB00F0F1EC76F00FC028F010C029F011C02AF9
:10FF0B00F012C02BF0000E2C6E800E2D6E1D0E2EDF
:10FF1B006E440E2F6EBEEC78F028C04BF029C04C0F
:10FF2B00F02AC04DF02BC04EF04FC011F050C01254
:10FF3B00F051C013F052C014F04BC015F04CC0166A
:10FF4B00F04DC017F04EC018F0E2EC6BF011C04F43
:10FF5B00F012C050F013C051F014C052F014EF7FE8
:10FF6B00F061EC6AF00009D8B4BEEF7FF0C0EF7F10
:10FF7B00F0CBEF7FF00C0E0001606F070E446EDAD2
:10FF8B000E436E070E466EDA0E456E56EC6AF000A7
:10FF9B0009D8B4D3EF7FF0D5EF7FF0E0EF7FF0051A
:10FFAB000E0001606F070E446EDA0E436E070E46AD
:10FFBB006EDA0E456E10EC71F00009D8B4E8EF7FE5
:10FFCB00F0EAEF7FF0F5EF7FF0090E0001606F07AD
:10FFDB000E446EDA0E436E070E466EDA0E456E4316
:10FFEB00C00DF044C00EF045C00FF046C010F0DC61
:05FFFB00EC6FF01200A4
:020000040020DA
:10000000FF0FFF0FFF0FFF0FFF0FFF0FFF0FFF0F80
:020000040030CA
:0C000000FADFFDF79FFFFFCFFFFFFFFFBF
:00000001FF
