:04000000B9EF2BF039
:1055F6001200120096908D901200030E0001606F4B
:1056060012009590010E09EC2BF01200016E01B00C
:1056160002D08C9001D08C801200016E01B002D0B5
:105626008D9001D08D801200010E10EC2BF00A0E29
:105636000001606F12006D966F86F19E43EC2BF0B1
:10564600D08EF28C1200A6B22BEF2BF02DEF2BF0A2
:1056560026EF2BF0010E120081A234EF2BF037EF6C
:105666002BF0010E38EF2BF0000E120081AA3EEF50
:105676002BF041EF2BF0010E42EF2BF0000E120043
:10568600030ECA12870ECA169C0ECB6E9F929D827F
:10569600CA8412009692959694949492929A8D82C8
:1056A6008C868B848B82898A12005A50D8B45EEF1E
:1056B6002BF061EF2BF0010E62EF2BF0000E1200C3
:1056C6005C50D8B469EF2BF06CEF2BF0010E6DEF48
:1056D6002BF0000E1200086E020E016E06C002F0DC
:1056E60007C003F00850A3EC2CF0120058EC2BF086
:1056F6000009D8A481EF2BF083EF2BF086EF2BF077
:10570600070E0001606F1200000E09EC2BF0010E6F
:10571600026EF40E016E08EC2DF0010E09EC2BF072
:10572600030E0001606F120063EC2BF00009D8A491
:105736009FEF2BF0A1EF2BF0A7EF2BF0010E09EC5A
:105746002BF0010E0001606F120052EC32F00009DE
:10575600D8A4B0EF2BF0B2EF2BF0B8EF2BF00B0E76
:105766000001606F000E10EC2BF0120000EE60F0EE
:10577600230EEE6AE806FDE100EE57F0070EEE6A2C
:10578600E806FDE1000EF86E0001FFEF35F0000EB1
:105796000A6E000E026E920E016EFBEC2FF00A2AC4
:1057A600130E0A64D9EF2BF0DBEF2BF0CCEF2BF0C6
:1057B6001200000E0A6E000E026E920E016EFBECD7
:1057C6002FF00A2A630E0A64EBEF2BF0EDEF2BF0B5
:1057D600DEEF2BF012007AEC2DF0000E09EC2BF028
:1057E600070E026ED00E016E08EC2DF0010E09ECCC
:1057F6002BF0060E0001606F12000E6E0CC00FF04B
:105806000DC010F0020E046E0F0E056E000E066E31
:10581600000E086E010E076E0E50D5EC2DF012002C
:1058260092809282C198C19AC198C19AC150F00BD8
:105836000D09C16EC050F80B0509C06EC050C70BEC
:105846001009C06EC08EC2801200016E01B002D077
:105856008D9201D08D8201B002D08C9601D08C86BB
:1058660001B002D08B9401D08B8401B002D08B9210
:1058760001D08B82120000016151D8B445EF2CF0A3
:1058860047EF2CF053EF2CF05750D8B44DEF2CF0D7
:1058960050EF2CF0010E51EF2CF0000E54EF2CF0CF
:1058A600000E1200C284C296C298C29A000E026E00
:1058B600160E016EFBEC2FF0C282C2B265EF2CF021
:1058C60067EF2CF060EF2CF0C450030B0C6EC35046
:1058D6000A6E0CC00BF01200C294C296C298C29A0D
:1058E600000E026E0C0E016EFBEC2FF0C282C2B2ED
:1058F6007FEF2CF081EF2CF07AEF2CF0C450030BE5
:105906000C6EC3500A6E0CC00BF01200026E02C081
:10591600A9FF01C0A8FFA69CA69EA684000EF2BE03
:10592600010E036EF29E550EA76EAA0EA76EA682F4
:1059360003B002D0F29E01D0F28EA694A692120077
:10594600046E000E056EB9EF2CF004500524A96E06
:10595600A69CA69EA68000F000F005500224D96EF3
:10596600000E0320DA6EA8CFDFFF052A0150055C82
:10597600D8A0C0EF2CF0C2EF2CF0A8EF2CF012004C
:105986003FEC2EF00009D8B4CBEF2CF0CDEF2CF085
:10599600E4EF2CF058EC2BF00009D8A4D5EF2CF04E
:1059A600D7EF2CF0E4EF2CF063EC2BF00009D8A431
:1059B600DFEF2CF0E1EF2CF0E4EF2CF0040E000109
:1059C600606F1200000E151A000E161A000E171A36
:1059D600800E181A11C001F012C002F013C003F0B5
:1059E60014C004F015C005F016C006F017C007F085
:1059F60018C008F0D3EC3AF001C011F002C012F062
:105A060003C013F004C014F01200000E046E000E62
:105A1600036E21EF2DF0000E066E000E056E054A90
:105A2600062A065009E1E00E055CD8A01DEF2DF010
:105A36001FEF2DF012EF2DF0034A042A0150035CEC
:105A460002500458D8A02AEF2DF02CEF2DF00EEFBF
:105A56002DF012009598959A959C959E9594959201
:105A6600000E016E000EB7EC2EF0000E016E010E58
:105A7600B7EC2EF0010E016E000E37EC2FF0010E82
:105A8600016E010E37EC2FF0000E016E000E78EC61
:105A96002FF0000E016E010E78EC2FF01200010EB1
:105AA60028EC2CF0CAEC2BF0000E28EC2CF0CAECFB
:105AB6002BF0010E28EC2CF0CAEC2BF0000E28EC93
:105AC6002CF0CAEC2BF0010E28EC2CF0CAEC2BF0D3
:105AD600000E28EC2CF0DCEC2BF0010E28EC2CF060
:105AE600DCEC2BF0DCEC2BF0DCEC2BF01200000EE7
:105AF60028EC2CF0CAEC2BF0010E28EC2CF0CAECAA
:105B06002BF0000E28EC2CF0CAEC2BF0010E28EC42
:105B16002CF0CAEC2BF0000E28EC2CF0DCEC2BF071
:105B2600010E28EC2CF0DCEC2BF0000E28EC2CF00F
:105B3600DCEC2BF0010E28EC2CF0DCEC2BF0DCEC92
:105B46002BF0DCEC2BF01200000E09EC2BF063ECD2
:105B56002BF00009D8A4B2EF2DF0B4EF2DF0D4EF5E
:105B66002DF0010E09EC2BF03FEC2EF00009D8B415
:105B7600BFEF2DF0C1EF2DF0D4EF2DF065C06DF025
:105B860066C06EF065C06BF066C06CF075C07DF0E7
:105B960076C07EF075C07BF076C07CF00D0E0001FD
:105BA600606F1200096E010E0A6E000E0B6EFAEFA0
:105BB6002DF007C001F008C002F026EC2BF00A6EAB
:105BC6000A50D8A4E9EF2DF0EBEF2DF0EDEF2DF014
:105BD60003EF2EF00B500524D96E000E0620DA6E68
:105BE600DF50016E09500B2489EC2CF00B2A04506F
:105BF6000B5CD8A001EF2EF003EF2EF0DCEF2DF0BA
:105C06000A501200000E066E000E056E03500410B8
:105C1600D8B410EF2EF012EF2EF03AEF2EF0010E60
:105C2600076E1AEF2EF0D89003360436072A04AE14
:105C36001FEF2EF021EF2EF016EF2EF0D89005363E
:105C460006360350015C04500258D8A02DEF2EF002
:105C56002FEF2EF034EF2EF00350015E0450025A5F
:105C66000580D89004320332072E21EF2EF005C0AE
:105C760001F006C002F01200180E0E6E000E0F6E36
:105C86001A0E106E000E116E3EEC30F0420E185CCD
:105C9600020E1958D8B052EF2EF054EF2EF078EFCE
:105CA6002EF0C30E185C010E1958D8A05DEF2EF029
:105CB6005FEF2EF078EF2EF0420E1A5C020E1B58A4
:105CC600D8B068EF2EF06AEF2EF078EF2EF0C30E04
:105CD6001A5C010E1B58D8A073EF2EF075EF2EF04C
:105CE60078EF2EF0010E79EF2EF0000E1200046E02
:105CF60099EF2EF004B002D08C9601D08C86B6EFC8
:105D06002EF004B002D08B9401D08B84B6EF2EF027
:105D160004B002D08D9201D08D82B6EF2EF004B081
:105D260002D08B9201D08B82B6EF2EF00150026E1C
:105D3600036A0350000AD8B4A3EF2EF0B6EF2EF094
:105D46000250010AD8B47DEF2EF0030AD8B484EFCE
:105D56002EF0010AD8B48BEF2EF0070AD8B492EFD2
:105D66002EF0B6EF2EF01200046EE1EF2EF0015089
:105D7600D8B4C0EF2EF0C4EF2EF0026A022AC5EFA7
:105D86002EF0026A023A8C500218EF0B02188C6E43
:105D9600F6EF2EF00150D8B4D3EF2EF0D7EF2EF059
:105DA600026A022AD8EF2EF0026A023202328C50C0
:105DB60002187F0B02188C6EF6EF2EF00450026E5E
:105DC600036A0350000AD8B4EBEF2EF0F6EF2EF07C
:105DD6000250000AD8B4BAEF2EF0010AD8B4CDEFBB
:105DE6002EF0F6EF2EF012003FEC2EF00009D8B49C
:105DF600FFEF2EF001EF2FF036EF2FF01C0E0E6E98
:105E0600000E0F6E1E0E106E000E116E3EEC30F080
:105E16001CC063F01DC064F01CC065F01DC066F0B8
:105E2600C00E1C240001676FFF0E1D20686F400E18
:105E36001C24696F000E1D206A6F1EC073F01FC000
:105E460074F01EC075F01FC076F0C00E1E24776F6A
:105E5600FF0E1F20786F400E1E24796F000E1F2044
:105E66007A6F030E606F1200046E62EF2FF001501E
:105E7600D8A440EF2FF044EF2FF0026A022A45EF34
:105E86002FF0026A023A024602468C500218BF0BF5
:105E960002188C6E77EF2FF00150D8A455EF2FF033
:105EA60059EF2FF0026A022A5AEF2FF0026A0246D1
:105EB6008C500218FD0B02188C6E77EF2FF00450F1
:105EC600026E036A0350000AD8B46CEF2FF077EF26
:105ED6002FF00250000AD8B43AEF2FF0010AD8B4D6
:105EE6004FEF2FF077EF2FF01200046EA3EF2FF095
:105EF6000150D8A481EF2FF085EF2FF0026A022A15
:105F060086EF2FF0026A023A02468C500218DF0B27
:105F160002188C6EB8EF2FF00150D8A495EF2FF031
:105F260099EF2FF0026A022A9AEF2FF0026A0246D0
:105F360002468C500218FB0B02188C6EB8EF2FF03D
:105F46000450026E036A0350000AD8B4ADEF2FF076
:105F5600B8EF2FF00250000AD8B47BEF2FF0010AF9
:105F6600D8B48FEF2FF0B8EF2FF012009384000E05
:105F76005D6E81B4C1EF2FF0C4EF2FF0010EC5EFB7
:105F86002FF0000E5C6E9380000E596E81B0CEEF3E
:105F96002FF0D1EF2FF0010ED2EF2FF0000E586E3A
:105FA6009382938A938C000E0001626F81BCDEEFB0
:105FB6002FF0E1EF2FF0010EE2EF2FF0000E576EFB
:105FC60081ACE8EF2FF0EBEF2FF0010EECEF2FF0A6
:105FD600000E616F938E81BEF3EF2FF0F6EF2FF078
:105FE600010EF7EF2FF0000E5A6E000E5B6E1200D8
:105FF60001500210D8A402EF30F004EF30F006EFA3
:1060060030F03DEF30F00204D8B00CEF30F00EEF78
:1060160030F01EEF30F0000E096E13EF30F0092A53
:106026000150095CD8A01AEF30F01CEF30F012EFE7
:1060360030F03DEF30F0000E086E000E076E26EFD2
:1060460030F0074A082AE00E036EFF0E046E01C008
:1060560005F002C006F0035005260450062205503E
:10606600075C06500858D8A03BEF30F03DEF30F003
:1060760024EF30F01200000E136E000E126E000EAA
:10608600156E000E146E000E176E000E166E000EC4
:10609600026E020E016EFBEC2FF06FEC2CF00A5034
:1060A60012260B50132255EC2CF00A5014260B50D6
:1060B6001522164A172A17BE6AEF30F0175009E163
:1060C6000A0E165CD8A06AEF30F06CEF30F04AEF9B
:1060D60030F012C001F013C002F0000E046E0A0E7A
:1060E600036E05EC2EF00EC0D9FF0FC0DAFF01C01B
:1060F600DEFF02C0DDFF14C001F015C002F0000E85
:10610600046E0A0E036E05EC2EF010C0D9FF11C006
:10611600DAFF01C0DEFF02C0DDFF12000DC011F084
:106126000EC012F0A50E115C060E1258D8A09EEFF6
:1061360030F0A0EF30F0A4EF30F0060E126EA40E91
:10614600116E080E115C020E1258D8B0ADEF30F089
:10615600AFEF30F0B3EF30F0020E126E080E116E94
:106166000FC013F010C014F0A50E135C060E1458E1
:10617600D8A0C0EF30F0C2EF30F0C6EF30F0060E18
:10618600146EA40E136E080E135C020E1458D8B0CB
:10619600CFEF30F0D1EF30F0D5EF30F0020E146EC5
:1061A600080E136E11C005F012C006F0000EE4ECE6
:1061B60030F013C005F014C006F0010EE4EC30F028
:1061C60012000C6E000E016E0C5037EC2FF0000E14
:1061D6000B6E000E0A6E0A500B08076E010E086E53
:1061E600000E096E072AFBEF30F0D8900836093604
:1061F600072EF8EF30F0055008160650091608501D
:106206000910D8A409EF31F00CEF31F0010E0DEFB3
:1062160031F0000E016E0C5078EC2FF0010E016E7D
:106226000C5037EC2FF00B0E0A180B10D8A41EEFEB
:1062360031F020EF31F025EF31F0010E016E0C50F8
:10624600B7EC2EF0000E016E0C5037EC2FF00A4A18
:106256000B2A0B5009E10C0E0A5CD8A035EF31F081
:1062660037EF31F0EEEF30F0000E016E0C50B7EC68
:106276002EF0010E016E0C5037EC2FF01200033495
:1062860004340A6E0A50D8A44BEF31F04DEF31F0CA
:1062960057EF31F0000E016E000E026E000E036E17
:1062A600000E046EC4EF31F001C005F002C006F026
:1062B60003C007F004C008F0200E67EF31F0D89055
:1062C6000832073206320532E82E62EF31F0055009
:1062D600096E038EFF0E0116FF0E0216FF0E031641
:1062E600000E0416960E0A5E0ABE7EEF31F07CEFB3
:1062F60031F094EF31F00A50800A970FD8B086EF4C
:1063060031F088EF31F08AEF31F04DEF31F0D8906F
:1063160004320332023201320A3E8AEF31F0ACEF28
:1063260031F01F0E0A649AEF31F09CEF31F0A4EFC2
:1063360031F04DEF31F0D89001360236033604368F
:106346000A060A50D8A4AAEF31F0ACEF31F09EEF5E
:1063560031F00950D8B4B2EF31F0B4EF31F0BCEF00
:1063660031F0041E031E021E016C000E02220322DF
:10637600042201C001F002C002F003C003F004C011
:1063860004F01200180E0E6E000E0F6E1A0E106E2E
:10639600000E116E3EEC30F0185000016D5D195084
:1063A6006E59D8B0D9EF31F0DBEF31F0DFEF31F0D5
:1063B60018C06DF019C06EF06B51185C6C5119580D
:1063C600D8B0E8EF31F0EAEF31F0EEEF31F018C077
:1063D6006BF019C06CF01A507D5D1B507E59D8B019
:1063E600F7EF31F0F9EF31F0FDEF31F01AC07DF043
:1063F6001BC07EF07B511A5C7C511B58D8B006EF4F
:1064060032F008EF32F00CEF32F01AC07BF01BC00E
:106416007CF063EC2BF00009D8B414EF32F016EFE1
:1064260032F051EF32F0000165516D5D6F6F6651CC
:106436006E59706F6B51655D716F6C516659726FF5
:1064460075517D5D7F6F76517E59806F7B51755D8D
:10645600816F7C517659826F71C00CF072C00DF05D
:10646600000E00EC2CF06FC00CF070C00DF0020EA8
:1064760000EC2CF081C00CF082C00DF0040E00EC94
:106486002CF07FC00CF080C00DF0060E00EC2CF056
:10649600000E09EC2BF00E0E0001606F1200000ECC
:1064A6001E6E2FEC2BF00009D8B45CEF32F05EEFD5
:1064B60032F0CDEF32F0210E0E6E000E0F6E1F0E73
:1064C600106E000E116E3EEC30F0800E186EFF0E50
:1064D600196E20EE75F0DECF1AF0DDCF1BF01850E6
:1064E6001A2619501B221F501A5C20501B58D8B070
:1064F6007FEF32F081EF32F0CDEF32F0800E000107
:106506007525186E000E7621196E18501F5C1950ED
:106516002058D8B091EF32F093EF32F0CDEF32F051
:106526006751215C68512258D8B09CEF32F09EEF3B
:1065360032F0CDEF32F07151655D186E72516659C9
:10654600196E1850215C19502258D8B0ADEF32F0B0
:10655600AFEF32F0B5EF32F07151655D216E7251D9
:106566006659226E2150655D1C6E225066591D6E5D
:10657600D8907231196E7131186E1C50185C1D500E
:106586001958D8B0C9EF32F0CBEF32F0CDEF32F078
:10659600010E1E6E1E50D8B4D3EF32F0D5EF32F096
:1065A600D8EF32F0010EE2EF32F05850D8B4DEEFF9
:1065B60032F0E1EF32F0010EE2EF32F0000E12009F
:1065C60081B4E8EF32F0EBEF32F0010EECEF32F08F
:1065D600000E5C18D8A4F2EF32F0F4EF32F0F8EFC8
:1065E60032F0000E5D6E0DEF33F05D2A080E5D642D
:1065F600FFEF32F001EF33F00DEF33F081B406EF29
:1066060033F009EF33F0010E0AEF33F0000E5C6E43
:10661600000E5D6E39EC2BF00009D8A415EF33F0AF
:1066260017EF33F043EF33F081B01CEF33F01FEF79
:1066360033F0010E20EF33F0000E5818D8A426EFE1
:1066460033F028EF33F02CEF33F0000E596E45EFA0
:1066560033F0592A080E596433EF33F035EF33F02F
:1066660045EF33F081B03AEF33F03DEF33F0010EF2
:106676003EEF33F0000E586E000E596E45EF33F0C4
:10668600010E586E81BE4AEF33F04DEF33F0010E26
:106696004EEF33F0000E5A18D8A454EF33F056EFED
:1066A60033F05AEF33F0000E5B6E6FEF33F05B2A78
:1066B600080E5B6461EF33F063EF33F06FEF33F096
:1066C60081BE68EF33F06BEF33F0010E6CEF33F001
:1066D600000E5A6E000E5B6E81BC74EF33F077EFDE
:1066E60033F0010E78EF33F0000E5718D8A47EEF82
:1066F60033F080EF33F085EF33F0000E0001626F68
:106706009BEF33F00001622B080E62658DEF33F0CC
:106716008FEF33F09BEF33F081BC94EF33F097EFBC
:1067260033F0010E98EF33F0000E576E000E626FD5
:10673600120058EC2BF00009D8B4A4EF33F0A6EF02
:1067460033F0ABEF33F052EC2DF0020E0001606F28
:106756003EEC2CF00009D8B4B3EF33F0B5EF33F0CC
:10676600BAEF33F0000EFBEC2AF0BDEF33F0010E6A
:10677600FBEC2AF03FEC2EF00009D8B4C5EF33F05D
:10678600C7EF33F0DDEF33F0010E016E010E7AEC48
:106796002EF0020E016E010E7AEC2EF0030E016E43
:1067A600010E7AEC2EF0040E016E010E7AEC2EF03C
:1067B6005DEF34F0200E0E6E000E0F6E220E106E80
:1067C600000E116E3EEC30F0D890000170311D6E57
:1067D6006F311C6E65511C2666511D2220501C5CB3
:1067E60021501D58D8B0FAEF33F0FCEF33F003EF29
:1067F60034F0010E016E000E7AEC2EF022EF34F02A
:10680600D89072311D6E71311C6E20EE65F0DECFB0
:106816001EF0DDCF1FF01C501E5E1D501F5A1E506D
:10682600205C1F502158D8B01BEF34F01DEF34F018
:1068360022EF34F0020E016E000E7AEC2EF0D890A4
:10684600000180311D6E7F311C6E75511C267651FC
:106856001D2222501C5C23501D58D8B035EF34F051
:1068660037EF34F03EEF34F0040E016E000E7AEC92
:106876002EF05DEF34F0D89082311D6E81311C6EA2
:1068860020EE75F0DECF1EF0DDCF1FF01C501E5E31
:106896001D501F5A1E50225C1F502358D8B056EF69
:1068A60034F058EF34F05DEF34F0030E016E000E55
:1068B6007AEC2EF01200020E0001646F020E636F76
:1068C600020E666F020E656F010E686FC20E676F6D
:1068D600020E6A6F420E696F010E6C6F260E6B6FA9
:1068E600020E6E6FDE0E6D6F000E706FDC0E6F6F38
:1068F600000E726FDC0E716F020E746F020E736FF4
:10690600020E766F020E756F010E786FC20E776FEC
:10691600020E7A6F420E796F010E7C6F260E7B6F28
:10692600020E7E6FDE0E7D6F000E806FDC0E7F6FB7
:10693600000E826FDC0E816F710E066E000E076E02
:10694600000E6EEC2BF06F0E066E000E076E020E3A
:106956006EEC2BF0810E066E000E076E040E6EECCA
:106966002BF07F0E066E000E076E060E6EEC2BF0F9
:106976000001705107E1DD0E6F5DD8B0C5EF34F050
:10698600C7EF34F0D2EF34F0705107E11B0E6F5DA4
:10699600D8B0D0EF34F0D2EF34F0D6EF34F0000EAA
:1069A600706FDC0E6F6F725107E1DD0E715DD8B04E
:1069B600DFEF34F0E1EF34F0ECEF34F0725107E141
:1069C6001B0E715DD8B0EAEF34F0ECEF34F0F0EF67
:1069D60034F0000E726FDC0E716F805107E1DD0E30
:1069E6007F5DD8B0F9EF34F0FBEF34F006EF35F009
:1069F600805107E11B0E7F5DD8B004EF35F006EF3E
:106A060035F00AEF35F0000E806FDC0E7F6F825195
:106A160007E1DD0E815DD8B013EF35F015EF35F0E7
:106A260020EF35F0825107E11B0E815DD8B01EEFD5
:106A360035F020EF35F024EF35F0000E826FDC0ED6
:106A4600816F1200096E0950D8B42CEF35F02EEF85
:106A560035F050EF35F004BE35EF35F033EF35F055
:106A660050EF35F001C005F002C006F003C007F094
:106A760004C008F0051E061E071E081E052A000E85
:106A860006220722082205C00BF006C00CF007C03C
:106A96000DF008C00EF058EF35F001C00BF002C043
:106AA6000CF003C00DF004C00EF0015002100310EC
:106AB6000410D8A461EF35F063EF35F06DEF35F0D3
:106AC600000E016E000E026E000E036E000E046EC6
:106AD600FEEF35F0960E0A6E77EF35F00A2AD8905B
:106AE6000E320D320C320B32000E0B14056E000EF8
:106AF6000C14066E000E0D14076EFE0E0E14086EB4
:106B06000550061007100810D8A48CEF35F08EEF4C
:106B160035F071EF35F09CEF35F00A2A010E0B26A1
:106B2600000E0C220D220E22D8900E320D320C329F
:106B36000B32000E0B14056E000E0C14066E000EC2
:106B46000D14076EFF0E0E14086E05500610071082
:106B56000810D8A4B1EF35F0B3EF35F090EF35F06B
:106B6600BBEF35F00A06D8900B360C360D360E36CE
:106B76000DBEC0EF35F0C2EF35F0CAEF35F0020EAC
:106B86000A60C8EF35F0CAEF35F0B5EF35F00AB058
:106B9600CFEF35F0D1EF35F0D2EF35F00D9ED8902E
:106BA6000A320AC005F0066A076A086A05C008F0D4
:106BB600076A066A056A05500B1206500C12075042
:106BC6000D1208500E120950D8B4ECEF35F0EEEF66
:106BD60035F0F6EF35F004BEF5EF35F0F3EF35F0AE
:106BE600F6EF35F00E8E0BC001F00CC002F00DC0B2
:106BF60003F00EC004F012006F861EEC2BF004ECBE
:106C06002BF0FDEC2AF02DEC2DF0FCEC2AF04DECEF
:106C16002BF013EC2CF0B9EC2FF0040E066E5B0E85
:106C2600056E000EE4EC30F0040E066E5B0E056E8B
:106C3600010EE4EC30F0000E566E000E556E000E9E
:106C4600026E920E016EFBEC2FF0554A562A56BE86
:106C560036EF36F0D00E555C070E5658D8A036EFF4
:106C660036F038EF36F022EF36F05EEC34F0000EF8
:106C760009EC2BF0000E566E000E556EE3EC32F06A
:106C8600000E026E920E016EFBEC2FF0554A562A4C
:106C960056BE57EF36F0565009E1960E555CD8A011
:106CA60057EF36F059EF36F041EF36F0010E09ECAA
:106CB6002BF0040E066E5B0E056E000EE4EC30F053
:106CC600040E066E5B0E056E010EE4EC30F0010E4E
:106CD6000001606FE3EC32F0A5EF36F0F7EC2EF032
:106CE600E7EF36F087EC2BF0E7EF36F0C3EC2CF04D
:106CF600E7EF36F033EC3DF0E7EF36F0EEEC2BF055
:106D0600E7EF36F079EC2BF0E7EF36F09CEC33F05A
:106D1600E7EF36F017EC2BF0E7EF36F0A8EC2BF0A8
:106D2600E7EF36F000EC2BF0E7EF36F0A7EC2DF0AE
:106D3600E7EF36F0C5EC31F0E7EF36F097EC2BF0E5
:106D4600E7EF36F000016051536E546A5450000A62
:106D5600D8B4B0EF36F0E7EF36F05350010AD8B4A6
:106D660071EF36F0030AD8B475EF36F0010AD8B4DD
:106D760079EF36F0070AD8B47DEF36F0010AD8B4B9
:106D860081EF36F0030AD8B485EF36F0010AD8B49D
:106D960089EF36F00E0AD8B48DEF36F0030AD8B470
:106DA60091EF36F0010AD8B495EF36F0070AD8B459
:106DB60099EF36F0010AD8B49DEF36F0030AD8B43D
:106DC600A1EF36F0E7EF36F0000E026E350E016EDB
:106DD600FBEC2FF06DEF36F000EF00F01250800B59
:106DE6001F6E12501224266E11AEFCEF36F0FEEF27
:106DF60036F0FFEF36F026802650D8B405EF37F090
:106E060007EF37F01CEF37F02628D8A40DEF37F040
:106E16000FEF37F017EF37F0000E0F6E000E106E03
:106E2600000E116E000E126E118E000E126E24EF01
:106E360037F0000E0F6E000E106E000E116E000E73
:106E4600126E1650800B1F1A16501624276E15AE9A
:106E56002FEF37F031EF37F032EF37F0278027503A
:106E6600D8B438EF37F03AEF37F04FEF37F027283E
:106E7600D8A440EF37F042EF37F04AEF37F0000E74
:106E8600136E000E146E000E156E000E166E158E25
:106E9600000E166E57EF37F0000E136E000E146ECE
:106EA600000E156E000E166E1350141015101610E7
:106EB600D8A460EF37F062EF37F07AEF37F0000EC4
:106EC6000F6E000E106E000E116E000E126E800E0A
:106ED60011127F0E12121F5012120FC00FF010C0A7
:106EE60010F011C011F012C012F0BDEF38F02650AC
:106EF600D8A480EF37F082EF37F08CEF37F0000E32
:106F06000F6E000E106E000E116E000E126EBDEFAB
:106F160038F0275026C017F0186A175E000E185A68
:106F26007F0E1724206E000E1820216E0FC01BF056
:106F360010C01CF011C01DF012C01EF0000E0F6E26
:106F4600000E106E000E116E000E126E000E226EF6
:106F5600000E236E000E246E000E256E000E276EA8
:106F6600EDEF37F02750D8B4BBEF37F0BDEF37F071
:106F7600D4EF37F0D8901B361C361D361E36D89007
:106F86000F3610361136123625AECCEF37F0CEEF6F
:106F960037F0CFEF37F00F80D890223623362436DD
:106FA600253613501B5C14501C5815501D5816508E
:106FB6001E58D8A0E1EF37F0E3EF37F0ECEF37F0EB
:106FC600258C13501B5E14501C5A15501D5A165012
:106FD6001E5A272A190E2764F3EF37F0F5EF37F01C
:106FE600B5EF37F01B501C101D101E10D8B4FEEF65
:106FF60037F000EF38F018EF38F0228018EF38F04D
:10700600D8900F3610361136123625AE0DEF38F001
:107016000FEF38F010EF38F00F80D8902236233675
:10702600243625362006D8A0210611AE1DEF38F0ED
:107036001FEF38F003EF38F0000E276E25AE26EF6F
:1070460038F028EF38F04CEF38F0FF0E2214176EA8
:10705600FF0E2314186EFF0E2414196E7F0E2514CE
:107066001A6E1750181019101A10D8B43DEF38F0D0
:107076003FEF38F043EF38F0010E276E4CEF38F053
:107086000FA048EF38F04AEF38F04CEF38F03FEFFA
:1070960038F02750D8B452EF38F054EF38F078EF84
:1070A60038F0010E0F26000E10221122122212A015
:1070B6005FEF38F061EF38F078EF38F00FC017F077
:1070C60010C018F011C019F012C01AF01A341A3292
:1070D60019321832173217C00FF018C010F019C045
:1070E60011F01AC012F0204A212A21BE83EF38F08F
:1070F600215008E12028D8A083EF38F085EF38F03A
:1071060090EF38F0000E216E2068000E0F6E000E14
:10711600106E000E116E000E126E21BE9DEF38F03D
:10712600215006E12004D8B09BEF38F09DEF38F0EF
:10713600ABEF38F0000E216E000E206E000E0F6EC3
:10714600000E106E000E116E000E126E000E1F6EF7
:1071560020C026F026A0B2EF38F0B4EF38F0B7EF33
:1071660038F0118EB8EF38F0119ED8902630126E96
:107176006EEF37F012002B50800B346E2B502B2401
:107186003A6E2AAEC9EF38F0CBEF38F0CCEF38F0D4
:107196003A803A50D8B4D2EF38F0D4EF38F0E7EF6F
:1071A60038F03A28D8A4DAEF38F0DCEF38F0E4EF1C
:1071B60038F0000E286E000E296E000E2A6E000EA4
:1071C6002B6E2A8EEFEF38F0000E286E000E296E19
:1071D600000E2A6E000E2B6E2F50800B341A2F5085
:1071E6002F24396E2EAEFAEF38F0FCEF38F0FDEFB3
:1071F60038F039803950D8B403EF39F005EF39F05B
:1072060018EF39F03928D8A40BEF39F00DEF39F023
:1072160015EF39F0000E2C6E000E2D6E000E2E6E40
:10722600000E2F6E2E8E20EF39F0000E2C6E000E03
:107236002D6E000E2E6E000E2F6E3950D8B426EF2E
:1072460039F028EF39F030EF39F03A50D8A42EEF64
:1072560039F030EF39F03AEF39F0000E286E000EB3
:10726600296E000E2A6E000E2B6ED2EF3AF02E50CB
:107276002802F3CF3FF0F4CF40F03F50356E366A28
:10728600376A386A40503B6E3C6A3D6A3E6A2D500A
:107296002902F3CF3FF0F4CF40F03F503526000EE1
:1072A60036223722382240503B26000E3C223D2211
:1072B6003E222C502A02F3CF3FF0F4CF40F03F504D
:1072C6003526000E36223722382240503B26000E45
:1072D6003C223D223E2237C038F036C037F035C05A
:1072E60036F0356A2C502902F3CF3FF0F4CF40F048
:1072F6003F50352640503622000E3722000E3822E7
:107306002D502802F3CF3FF0F4CF40F03F50352602
:1073160040503622000E3722000E382237C038F091
:1073260036C037F035C036F0356A2C502802F3CF18
:107336003FF0F4CF40F03F50352640503622000E45
:107346003722000E38222E502902F3CF3FF0F4CF19
:1073560040F03F503B2640503C22000E3D22000E9E
:107366003E222D502A02F3CF3FF0F4CF40F03F509B
:107376003B2640503C22000E3D22000E3E222E505F
:107386002A02F3CF3FF0F4CF40F03F50306E40502A
:10739600316E326A336A32C033F031C032F030C0F7
:1073A60031F0306A30503B2631503C2232503D227B
:1073B60033503E2235C030F036C031F037C032F09F
:1073C60038C033F0190EEDEF39F0D890333232323F
:1073D60031323032E82EE8EF39F030503B2631506A
:1073E6003C2232503D2233503E2237C038F036C060
:1073F60037F035C036F0356A39503AC030F0316A68
:107406003026000E3122820E30243F6EFF0E3120D0
:10741600406E23EF3AF0D8903B363C363D363E364A
:1074260038AE18EF3AF01AEF3AF01BEF3AF03B801D
:10743600D89035363636373638363F06D8A0400629
:107446003DAE28EF3AF02AEF3AF00EEF3AF0000E92
:10745600396E38AE31EF3AF033EF3AF057EF3AF093
:10746600FF0E3514306EFF0E3614316EFF0E3714D4
:10747600326E7F0E3814336E3050311032103310A6
:10748600D8B448EF3AF04AEF3AF04EEF3AF0010E30
:10749600396E57EF3AF03BA053EF3AF055EF3AF01A
:1074A60057EF3AF04AEF3AF03950D8B45DEF3AF078
:1074B6005FEF3AF083EF3AF0010E3B26000E3C22D6
:1074C6003D223E223EA06AEF3AF06CEF3AF083EF9F
:1074D6003AF03BC030F03CC031F03DC032F03EC027
:1074E60033F03334333232323132303230C03BF063
:1074F60031C03CF032C03DF033C03EF03F4A402A36
:1075060040BE8EEF3AF0405008E13F28D8A08EEFFB
:107516003AF090EF3AF09AEF3AF0000E3B6E000E1A
:107526003C6E800E3D6E7F0E3E6EC8EF3AF040BE5A
:10753600A7EF3AF0405006E13F04D8B0A5EF3AF085
:10754600A7EF3AF0B3EF3AF0000E3B6E000E3C6E3A
:10755600000E3D6E000E3E6E000E346EC8EF3AF021
:107566003FC03AF0FF0E3B16FF0E3C167F0E3D164F
:10757600000E3E163AA0C2EF3AF0C4EF3AF0C5EF5D
:107586003AF03D8ED8903A303E6E34503E123BC0B3
:1075960028F03CC029F03DC02AF03EC02BF0120076
:1075A6000450800B0D6E045004240F6E03AEDEEF04
:1075B6003AF0E0EF3AF0E1EF3AF00F800F50D8B42E
:1075C600E7EF3AF0E9EF3AF0FEEF3AF00F28D8A4E9
:1075D600EFEF3AF0F1EF3AF0F9EF3AF0000E016E04
:1075E600000E026E000E036E000E046E038E000E79
:1075F600046E06EF3BF0000E016E000E026E000EEA
:10760600036E000E046E0850800B0E6E0D500E18A1
:10761600D8B410EF3BF012EF3BF013EF3BF00D8CBC
:10762600085008240E6E07AE1BEF3BF01DEF3BF033
:107636001EEF3BF00E800E50D8B424EF3BF026EF41
:107646003BF03BEF3BF00E28D8A42CEF3BF02EEF9F
:107656003BF036EF3BF0000E056E000E066E000E98
:10766600076E000E086E078E000E086E43EF3BF0A5
:10767600000E056E000E066E000E076E000E086EFA
:107686000F500E5CD8B04AEF3BF04CEF3BF073EF77
:107696003BF00DAC51EF3BF053EF3BF055EF3BF0B9
:1076A600800E0D1A0FC010F00EC00FF010C00EF0B5
:1076B60001C010F005C001F010C005F002C010F0C6
:1076C60006C002F010C006F003C010F007C003F0B9
:1076D60010C007F004C010F008C004F010C008F095
:1076E600000E106E0F500EC009F00A6A095E000EF9
:1076F6000A5A0ABE88EF3BF00A5009E11A0E095CE5
:10770600D8A088EF3BF08AEF3BF0C1EF3BF0015089
:10771600021003100410D8A493EF3BF096EF3BF051
:10772600010E97EF3BF0000E106E000E016E000E7C
:10773600026E000E036E000E046E0EC00FF0CAEF4E
:107746003BF010A0A9EF3BF0ABEF3BF0B1EF3BF005
:10775600D89010300109106EB3EF3BF0D89010327C
:1077660001A0B8EF3BF0BAEF3BF0BBEF3BF0108E59
:10777600043404320332023201320F2A0E500F5CF7
:10778600D8A0C8EF3BF0CAEF3BF0A4EF3BF00DBC2E
:10779600CFEF3BF0D1EF3BF011EF3CF00F50D8A408
:1077A600D7EF3BF0D9EF3BF0E3EF3BF0000E016E75
:1077B600000E026E000E036E000E046E32EF3DF0F8
:1077C60005500126065002220750032208500422C3
:1077D60004A0F0EF3BF0F2EF3BF09EEF3CF010A080
:1077E600F7EF3BF0F9EF3BF0FFEF3BF0D8901030AE
:1077F6000109106E01EF3CF0D890103201A006EF9F
:107806003CF008EF3CF009EF3CF0108E04340432F3
:107816000332023201320F2A9EEF3CF00550015C22
:1078260006500258075003580450800A096E085043
:10783600800A0958D8B022EF3CF024EF3CF04FEF15
:107846003CF00150055C096E025006580A6E035062
:1078560007580B6E045008580C6EFF0E0924016E73
:10786600FF0E0A20026EFF0E0B20036EFF0E0C2089
:10787600046E800E0D1A106C1050D8A445EF3CF023
:1078860047EF3CF057EF3CF0010E0126000E0222B6
:107896000322042257EF3CF00550015E0650025ABF
:1078A6000750035A0850045A0150021003100410DE
:1078B600D8A460EF3CF062EF3CF097EF3CF010503C
:1078C600D8A468EF3CF06AEF3CF097EF3CF0000E6E
:1078D600016E000E026E000E036E000E046E32EF95
:1078E6003DF0D890013602360336043610AE7EEFF0
:1078F6003CF080EF3CF081EF3CF0018010A086EF79
:107906003CF088EF3CF08CEF3CF0D88010368EEFE0
:107916003CF0D89010360F50D8B494EF3CF096EF68
:107926003CF097EF3CF00F0603AE9CEF3CF09EEF69
:107936003CF074EF3CF0000E0E6E10AEA5EF3CF07E
:10794600A7EF3CF0BFEF3CF010C009F07F0E091620
:10795600D8B4B0EF3CF0B2EF3CF0B6EF3CF0010E1D
:107966000E6EBFEF3CF001A0BBEF3CF0BDEF3CF06C
:10797600BFEF3CF0B2EF3CF00E50D8B4C5EF3CF090
:10798600C7EF3CF0F2EF3CF0010E0126000E02229A
:107996000322042204A0D2EF3CF0D4EF3CF0F2EF35
:1079A6003CF001C009F002C00AF003C00BF004C0AD
:1079B6000CF00C340C320B320A32093209C001F0D9
:1079C6000AC002F00BC003F00CC004F00F28D8B4B4
:1079D600EFEF3CF0F1EF3CF0F2EF3CF00F2A0F280E
:1079E600D8B4F8EF3CF0FAEF3CF002EF3DF00F5060
:1079F600D8A400EF3DF002EF3DF014EF3DF0000E8D
:107A0600016E000E026E000E036E000E046E0F5025
:107A1600D8A410EF3DF012EF3DF014EF3DF0000E4C
:107A26000D6E0FA019EF3DF01BEF3DF01EEF3DF080
:107A3600038E1FEF3DF0039ED8900F30046E0DAEFF
:107A460027EF3DF029EF3DF02AEF3DF0048E01C00F
:107A560001F002C002F003C003F004C004F01200FB
:107A6600470E0E6E000E0F6E490E106E000E116E52
:107A76003EEC30F0040E446E5B0E436E040E466E12
:107A86005B0E456E47500001695D48506A59D8B093
:107A96004FEF3DF051EF3DF0E6EF3DF065516F25BC
:107AA600416E66517021426E4750415C48504258C3
:107AB600D8B060EF3DF062EF3DF068EF3DF0655104
:107AC6006F25476E66517021486E000E4F6E600E30
:107AD600506E8B0E516E440E526E6551475C416E70
:107AE60066514858426E41C001F042C002F0036A36
:107AF600046A000E25EC35F001C04BF002C04CF0D4
:107B060003C04DF004C04EF06FC001F070C002F02B
:107B1600036A046A000E25EC35F001C013F002C0BA
:107B260014F003C015F004C016F04BC00FF04CC0A3
:107B360010F04DC011F04EC012F0F1EC36F00FC04F
:107B460028F010C029F011C02AF012C02BF0000E48
:107B56002C6E800E2D6E1D0E2E6E440E2F6EBEECFC
:107B660038F028C04BF029C04CF02AC04DF02BC08D
:107B76004EF04FC001F050C002F051C003F052C0A9
:107B860004F04BC005F04CC006F04DC007F04EC0E7
:107B960008F0D3EC3AF001C04FF002C050F003C039
:107BA60051F004C052F04FC001F050C002F051C075
:107BB60003F052C004F042EC31F001C043F002C0C1
:107BC60044F083EF3EF06751475C68514858D8B09F
:107BD600EFEF3DF0F1EF3DF083EF3EF02FEC2BF0B1
:107BE6000009D8A4F9EF3DF0FBEF3DF083EF3EF03E
:107BF60000017151655D416E72516659426E415088
:107C0600475C42504858D8B00BEF3EF00DEF3EF0BF
:107C160013EF3EF07151655D476E72516659486EBD
:107C2600000E4F6E600E506E8B0E516E440E526EED
:107C36004750655D416E48506659426E41C001F03D
:107C460042C002F0036A046A000E25EC35F001C05A
:107C56004BF002C04CF003C04DF004C04EF071C0B2
:107C660001F072C002F0036A046A000E25EC35F0DA
:107C760001C013F002C014F003C015F004C016F0E2
:107C86004BC00FF04CC010F04DC011F04EC012F0BA
:107C9600F1EC36F00FC028F010C029F011C02AF020
:107CA60012C02BF0000E2C6E800E2D6E1D0E2E6E49
:107CB600440E2F6EBEEC38F028C04BF029C04CF0B5
:107CC6002AC04DF02BC04EF04FC011F050C012F03C
:107CD60051C013F052C014F04BC015F04CC016F052
:107CE6004DC017F04EC018F0E5EC2CF011C04FF067
:107CF60012C050F013C051F014C052F0D6EF3DF050
:107D060049500001795D4A507A59D8B08DEF3EF05E
:107D16008FEF3EF024EF3FF075517F25416E76518F
:107D26008021426E4950415C4A504258D8B09EEF7D
:107D36003EF0A0EF3EF0A6EF3EF075517F25496E6E
:107D4600765180214A6E000E4F6E600E506E8B0E7D
:107D5600516E440E526E7551495C416E76514A58C9
:107D6600426E41C001F042C002F0036A046A000E8E
:107D760025EC35F001C04BF002C04CF003C04DF0CD
:107D860004C04EF07FC001F080C002F0036A046AAE
:107D9600000E25EC35F001C013F002C014F003C04C
:107DA60015F004C016F04BC00FF04CC010F04DC0DB
:107DB60011F04EC012F0F1EC36F00FC028F010C0F2
:107DC60029F011C02AF012C02BF0000E2C6E800E86
:107DD6002D6E1D0E2E6E440E2F6EBEEC38F028C092
:107DE6004BF029C04CF02AC04DF02BC04EF04FC0CE
:107DF60001F050C002F051C003F052C004F04BC075
:107E060005F04CC006F04DC007F04EC008F0D3ECAC
:107E16003AF001C04FF002C050F003C051F004C068
:107E260052F04FC001F050C002F051C003F052C0F2
:107E360004F042EC31F001C045F002C046F0B6EF66
:107E46003FF07751495C78514A58D8B02DEF3FF052
:107E56002FEF3FF0B6EF3FF08151755D416E8251D5
:107E66007659426E4150495C42504A58D8B03EEF6E
:107E76003FF040EF3FF046EF3FF08151755D496EB0
:107E8600825176594A6E000E4F6E600E506E8B0E02
:107E9600516E440E526E4950755D416E4A50765988
:107EA600426E41C001F042C002F0036A046A000E4D
:107EB60025EC35F001C04BF002C04CF003C04DF08C
:107EC60004C04EF081C001F082C002F0036A046A69
:107ED600000E25EC35F001C013F002C014F003C00B
:107EE60015F004C016F04BC00FF04CC010F04DC09A
:107EF60011F04EC012F0F1EC36F00FC028F010C0B1
:107F060029F011C02AF012C02BF0000E2C6E800E44
:107F16002D6E1D0E2E6E440E2F6EBEEC38F028C050
:107F26004BF029C04CF02AC04DF02BC04EF04FC08C
:107F360011F050C012F051C013F052C014F04BC0F3
:107F460015F04CC016F04DC017F04EC018F0E5EC19
:107F56002CF011C04FF012C050F013C051F014C0F5
:107F660052F014EF3FF063EC2BF00009D8B4BEEFEB
:107F76003FF0C0EF3FF0CBEF3FF00C0E0001606F1B
:107F8600040E446E5B0E436E040E466E5B0E456E2B
:107F960058EC2BF00009D8B4D3EF3FF0D5EF3FF003
:107FA600E0EF3FF0050E0001606F040E446E5B0EBD
:107FB600436E040E466E5B0E456E52EC32F00009BF
:107FC600D8B4E8EF3FF0EAEF3FF0F5EF3FF0090EE7
:107FD6000001606F040E446E5B0E436E040E466E27
:107FE6005B0E456E43C00DF044C00EF045C00FF069
:0A7FF60046C010F091EC30F01200CC
:020000040020DA
:08000000FFFFFFFFFFFFFFFF00
:020000040030CA
:0E000000000C191EFF8180FF0FC00FE00F40A3
:00000001FF
